:060000008831582B0000BE
:0800080083018031200077081C
:10001000A0007808A1007908A2007A08A300850151
:1000200091308400001C162811183B28850191305E
:100030008400001E1D28111A3D288501913084007E
:10004000801E2428911A3F28850193308400801C4B
:100050002B2893184128850193308400801D322875
:10006000931943282008F7002108F8002208F90016
:100070002308FA000900803153288031E0298031BB
:10008000D52880315A288031812825008C110C1206
:10009000000000000C138C120D30F700F70B4E28F7
:1000A0002000181008004520BB010130BA001110D3
:1000B00080313228C60A0319C70A47084502031CC3
:1000C0006928031D672846084402031C6928BC15DB
:1000D0007228BC114A0B7228210093102000931043
:1000E000C701C60143084702031C7E28031D7C2864
:1000F00042084602031C7E28C701C60193108031C6
:100100003228C80A0319C90A49084102031C902869
:10011000031D8E2848084002031C90283D08BC049B
:1001200041084902031C9D28031D9A2848084002E3
:1001300003189D283D08FF3ABC053F084902031CEF
:10014000A928031DA72848083E020318A928C901A9
:10015000C80193118031322808302200EC02031CC0
:10016000BE2820308500EC3084000310800C00088D
:100170000319BE28BC280000800BBB282000080003
:1001800020308500EB30840000080319D4280230A9
:10019000F800F701F70BCA28F80BC9289730F700C9
:1001A000F70BD028800BC72808004630750784005D
:1001B000203085000318850A2300190880001D08D7
:1001C0000239023C031DE6281D121D162000660898
:1001D000023C0319EE28F5010130FC00750BF228F2
:1001E0006708FB00F508031902297508033C031C86
:1001F0000229463075078400203085000318850ADF
:100200000008F60603307B077502031CD5296A082F
:100210007602031DBF2968084D02031919294D08EC
:100220000A3C031C1929CD0803191929E808031DE4
:10023000BF29F60123001D122100111223009E1672
:1002400025008C14200069084A3C031D3B29CD0180
:100250000B08F7008B1323009101930195131515DB
:1002600055309600AA309600951477088B0495189F
:1002700037291511200069081E3C031D6E296808E6
:10028000CD000B08F7008B132300910120004D08CF
:10029000230093009513151555309600AA3096004B
:1002A000951477088B0495185329151101302000F7
:1002B000CF004D08D0001E30D10002302200B8001F
:1002C000F830EC002000AC202200B80B602902308E
:1002D00023009A00F60121001116200069082D3C28
:1002E000031DBE291730CF004D08D0002D30D1009E
:1002F0002508D2005208F6064C08D3005308F6062B
:100300002808D4002908FA01D5002A08D6002B08AD
:10031000FA01D7002C08D8002D08FA01D9002E08C0
:10032000DA002F08FA01DB003008DC003108FA019E
:10033000DD003208DE003308FA01DF003408E00097
:100340003508FA01E1003608E2003708FA01E30057
:100350003808E4003908FA01E50002302200B8004C
:10036000F830EC002000AC202200B80BB02902309D
:1003700023009A00F601210011162000D229230043
:100380001D1219302200EB002000C0209112230022
:1003900019082200B600230019082200B600230025
:1003A0001D162000F501F601DD29FC080319DC29E2
:1003B000F501FC01F601DD29F50A911280313228A0
:1003C0004F082100A800023028077D020319EA29FE
:1003D0000318102A8530F700F70BEC292E307D0723
:1003E0008400203085000318850A000823009A0045
:1003F000FD080319042A2E307D0784002030850073
:100400000318850A0008FE06FD0A023021002807AD
:100410007D0203190F2A031C0F2A0130A900302A7C
:10042000290B302A01302200EB002000C0202100DF
:100430001112A9017E0823009A0001302200EB006E
:100440002000C020FE0123009E120130FD001D1679
:1004500025008C10230019082200B6002100111677
:100460002000111280313228A901A801AB01AA0194
:10047000AD01AC01AF01AE01B101B001B301B201F8
:10048000B901B801080021005C080139013C031DD5
:100490004D2A25000D144F2A210025000D102100A2
:1004A0005C080239023C031D592A200010145B2A03
:1004B00021002000101021005C080439043C031DB9
:1004C000652A20009014672A210020009010210046
:1004D0005C080839083C031D712A20000D15732A99
:1004E000210020000D1121005C081039103C031D73
:1004F0007D2A25008C177F2A210025008C132000DF
:10050000080072302100990020008C018D018E01BD
:100510008F01900125008C018D0121008C01033099
:100520008D008F308E008F019001053026008C00E9
:100530000C308D001D3021009D0093309E00230063
:100540008C01083028008D0004308C0080302000A1
:10055000980027309B009A01C330280096009D0028
:100560007F3097009E001830210097008B012300F8
:100570009901990191019513151413082000CD00DC
:100580000530230091009513151413082000A500D1
:100590000330230091009513151413082000B701B0
:1005A000B600043023009100951315141308FA01C6
:1005B000FA0000302000B6077A08B73D3422250F34
:1005C000E22AE62A360F342B370F342B0130A500F0
:1005D0003E30B7008030B6000B08F7008B130530B3
:1005E0002300910020002508230093009513151582
:1005F00055309600AA309600951477088B0495180C
:10060000FF2A15110B08F7008B130330910020000F
:100610003608230093009513151555309600AA301F
:100620009600951477088B049518142B151120004B
:100630003708FA012100AB000B08F7008B130430D8
:100640002300910021002B0823009300951315151A
:1006500055309600AA309600951477088B049518AB
:100660002F2B15113E2B2000A5013830B500A430EA
:10067000B4003608B4023708B53B230020003C160E
:100680003C082100DC0020004322CC018230220003
:100690009E0020309F000B309700213021009100F8
:1006A0009201930194012000910192019301940120
:1006B0000B178B170730210095003F3020009C005E
:1006C0008831992B193023009B009C0180309D00BC
:1006D00024309E009F0125008C1023001D16190850
:1006E0002100AB00883120009C2B210093112000B9
:1006F000931108002100E001DF01DE01DD01DC01D2
:100700005C08023C031C9F2B0D30F700F70B862B77
:100710009D149D18892BDC0803199D2BFA01E20119
:10072000FA011B086207F8001C08FA3D7808DD078B
:100730007A08DE3D0030DF3DE03DDC0A802B03100F
:10074000E00CDF0CDE0CDD0C5E08023C031CFD2B14
:10075000031DAE2B5D08EC3C031CFD2B2400D808C8
:10076000031DFB2B0130D8000B08F7008B1305305D
:1007700023009100200025082300930095131515F0
:1007800055309600AA309600951477088B0495187A
:10079000C72B15110B08F7008B13033091002000B5
:1007A0003608230093009513151555309600AA308E
:1007B0009600951477088B049518DC2B15112000F2
:1007C0003708FA012100E2000B08F7008B13043010
:1007D0002300910021006208230093009513151552
:1007E00055309600AA309600951477088B0495181A
:1007F000F72B151124000A2C21005E08023C031877
:100800000B2CFF3A031D082C5D08403C03180B2CF1
:100810002400D801210064002000911C0D2C9110AF
:100820000800960121005D082000970021005C0867
:100830002000960025000C170330F700F70B1E2C44
:100840000C162000181408000030F800402C22007C
:1008500015193E2C2000A4018B1BA4178B1302300A
:100860002200EB002000C020A41B8B1722001519CA
:100870003E2C0130F8002000402C22000030F8000F
:10088000200008001708FA001608F70017087A0277
:10089000031D422C77082100E4007A08E5005E0879
:1008A0006402E0005F08653BE1005C08023C031D58
:1008B000722CDD08031D722CE108031D662C6008F4
:1008C0004A3C031C662C0130F800AD2C2000242487
:1008D000F8080319702C0130F8002100AD2C20001D
:1008E000AA2C2100DD08031D792C5C08023C0318AA
:1008F000A92C20002424F8080319832C0130F800C7
:100900002100AD2C20002100A608031D8F2CA70874
:10091000031D8F2C6108A7006008A600A92C2608DB
:100920006002E2002708613BE3006108A70060085D
:10093000A600E308031DA92C62084F3C031CA92C48
:10094000F40A7408023C0318A92CF4010130F800E1
:10095000AD2C20000030F80021002000080022000B
:10096000A301A20121006A082200A1002100690858
:100970002200A0002308A7002208A6002108A50045
:100980002008A400AB01AA01A9016430A80020300E
:10099000B300AF01B001B101B2012708FA00260887
:1009A000F9002508F8002408F7000310771CE62C4E
:1009B0002808AF0729080318290FB0072A080318C9
:1009C0002A0FB1072B0803182B0FB207B20CB10C7A
:1009D000B00CAF0CFA0CF90CF80CF70CB30BD52CCF
:1009E0007A082100EE007908ED007808EC0077081D
:1009F000EB0083106E082200A30021006D08220086
:100A0000A20021006C082200A10021006B08220036
:100A1000A000A701A6010530A5001430A40083188A
:100A2000152D20308500AA308400F701F801F90166
:100A3000FA01AA01AB01AC01AD0127082604250487
:100A400024040319532D2030AE000310A00DA10D76
:100A5000A20DA30DAA0DAB0DAC0DAD0D27082D02F7
:100A6000031D3C2D26082C02031D3C2D25082B02BE
:100A7000031D3C2D24082A02031C4D2D2408AA0224
:100A80002508031C250FAB022608031C260FAC0209
:100A90002708031C270FAD020314F70DF80DF90DFD
:100AA000FA0DAE0B252D2A0880002B08813F2C085B
:100AB000823F2D08833F7A082100EE007908ED007F
:100AC0007808EC007708EB000530EB070030EC3DD0
:100AD000ED3DEE3D6B08F8006C08F90020000800C1
:100AE0001708FA001608F70017087A02031D702D80
:100AF00077082100D3007A08D40020003A0B912D0A
:100B0000BB08031D912D21005208EA005108E9009D
:100B10002000AF2479082100D4007808D300B32D39
:100B2000200021005308FF3CD3005408031C540F3D
:100B30009B2DFF309C2DFF3CD40053085102D30065
:100B40005408031C540FA62D5208A72D5202D4009E
:100B50005408EA005308E9002000AF247908210076
:100B6000D4007808D3005108703C031DC92D5208E9
:100B7000033C031DC92D2000B00A0319B10A21004E
:100B800053082000B207210054082000B33DD52DA2
:100B900021002000AC0A0319AD0A210053082000EF
:100BA000AE07210054082000AF3D2100530820006B
:100BB000B407210054082000B53D2100530820004F
:100BC000B602210054082000B73B37089B3C0318AD
:100BD000F22DFF3A031DF02D36083F3C0318F22D8D
:100BE000B701B601BB01BA01960197019601080051
:100BF0002100931020009310C701C60108002100B6
:100C000044082000C500210043082000C400210042
:100C100046082000C300210045082000C200210032
:100C200047082000CA00C701C60193102100931491
:100C300020000800F208031D4B2E0E19252E21005E
:100C4000A20A0319A30A282E20002100A301A20151
:100C5000A308031D2F2E2208023C0318492E03105F
:100C6000C20D4208043C0318372E0130C200A30114
:100C7000A2010130F2002000F8252100C401053056
:100C8000C300C6010F30C5000130C7002000FF259A
:100C90002100602E20000E1D532E2100A20A0319F0
:100CA000A30A562E20002100A301A201A308031DC0
:100CB0005D2E22080A3C0318602EF201A301A20156
:100CC0004208F800200008002100C301C501C4014A
:100CD00020008E196D2EF00A6E2EF0017008033C74
:100CE0000318EF2FBC112100DD01DC0120001124CD
:100CF0008E19DE2E3C082100DC00200043227A23DE
:100D00002100C30A43080A3C0318DC2EC301C40AAD
:100D10000319C50A4508DD004408DC00DF01DE01D7
:100D200020004224F8080319DB2E45202100420848
:100D3000023C031DDC2E20001708FA001608F700FD
:100D400017087A02031D9C2E77082100C8007A0834
:100D5000C9004908EA004808E9002000AF247908E2
:100D60002100C7007808C60046082000B40721000B
:100D700047082000B53D210046082000B6022100AA
:100D800047082000B73B37089B3C0318D02EFF3A9A
:100D9000031DCE2E36083F3C0318D02EB701B601F6
:100DA000210046082000A807210047082000A93D8F
:100DB0000530F800F22F21002000782E4520210078
:100DC0004208023C031DF02F20001708FA00160805
:100DD000F70017087A02031DE52E77082100C800E6
:100DE0007A08C9004908DF004808DE008E30F700A5
:100DF0005F08F8005E08F900FA01F808031D0A2FE1
:100E00007908F800F9010830F702F808031D0A2FE5
:100E1000F701122F0310F81B112FF90DF80DF7032E
:100E20000A2FF8137A08E1007908E0007808DF005B
:100E30007708DE00CD30E500CC30E4004C30E30034
:100E40007E30E2005E080319922FE6006208031963
:100E5000922FE6070318332F7F30E602031C922FF0
:100E60000319922F372F8130E6070318922F660857
:100E7000F700F801F901FA015F08EA00EA176008D3
:100E8000E9006108E8001830E600E701681C602FFF
:100E90006508FA07031C522FF90A031D522FF80A9E
:100EA0000319E7176408F907031C592FF80A0319F7
:100EB000E7176308E000E0176008F8070318E71772
:100EC000E70DF80CF90CFA0CEA0CE90CE80C03102D
:100ED000E60B452F0130F7070318922FF81B772FE9
:100EE000EA0DFA0DF90DF80DF7030319922FEA1F19
:100EF000882FFA0A031D882FF90A031D882FF80A84
:100F0000031D882FF80CF90CFA0CF70A0319922F1D
:100F10005F08E7006308E706E71F902FF817962F92
:100F2000F813962FF701F801F901FA017A08DF00AA
:100F30007908DE007808DD007708DC008E30F700E5
:100F40005C08F7025D08F9005E08F800F917F70879
:100F50000319B52F0310F908031DB12FF808031961
:100F6000B52FF90CF80CF70BAA2FDD1FBC2FF809D1
:100F7000F909F80A0319F90A7908C9007808C800BC
:100F80004908EA004808E9002000AF247908210058
:100F9000C7007808C60046082000B40721004708AB
:100FA0002000B53D210046082000B6022100470878
:100FB0002000B73B37089B3C0318E72FFF3A031D7F
:100FC000E52F36083F3C0318E72FB701B601210093
:100FD00046082000A807210047082000A93D21005D
:080FE0004208F800200008009F
:101000002100C301C501C40120008D180928F10A7F
:101010000A28F1017108033C0318DC28BC112100E7
:10102000DD01DC012000960121005D082000970011
:1010300021005C082000960025008C160330F70084
:10104000F70B20288C15200018148D1895283C08C3
:101050002100DC00803120004322883180317A2356
:1010600088312100C30A43080A3C03189328C301AE
:10107000C40A0319C50A4508DD004408DC00DF0185
:10108000DE018031200042248831F80803199228BB
:1010900080314520883121004208023C031D9328FD
:1010A00020001708FA001608F70017087A02031D37
:1010B000512877082100C8007A08C9004908EA00C9
:1010C0004808E90080312000AF24883179082100E8
:1010D000C7007808C60046082000AA072100470874
:1010E0002000AB3D210046082000B4022100470843
:1010F0002000B53B210046082000B6072100470824
:101100002000B73D35089B3C03188F28FF3A031D8C
:101110008D2834083F3C03188F28B501B4010530F1
:10112000F800DF2821002000252880314520883163
:1011300021004208023C031DDD2820001708FA00A8
:101140001608F70017087A02031D9E287708210069
:10115000C8007A08C9004908EA004808E900803157
:101160002000AF24883179082100C7007808C60024
:1011700046082000AA07210047082000AB3D2100B7
:1011800046082000B402210047082000B53B21009A
:1011900046082000B607210047082000B73D350863
:1011A0009B3C0318DC28FF3A031DDA2834083F3C37
:1011B0000318DC28B501B40121004208F800200022
:1011C0000800803175238831BC011230BC00F83032
:1011D000A505A51480317A2388314B1CF2280130F3
:1011E000F800942A3C082100DC00803120004322D2
:1011F000883121002008210403190229200803193D
:10120000A103A003A008031D1029A108031D102994
:101210000730A100D030A0002000ED01EC0121003A
:1012200020006D08093C03182C29EE0A0319EF0A67
:101230006F08033C031C2729031D22296E08E73C85
:10124000031C27293C120230F800F7292C29EF0152
:10125000EE01ED01EC013C168E183029EB0A312924
:10126000EB016B08033C0318F329EB016C08003C0D
:101270000318422903302100C3007030C20020004F
:10128000ED0A492903302100C3007030C20020005C
:10129000EC0A3C1207302100A100D030A000430826
:1012A000C7004208C600CB01CA01CE014608FF3C78
:1012B000D000FF30D1004708D13B5108DD00500875
:1012C000DC0080312000112488312100C901C801CF
:1012D0002000BA08031DB229BB08031DB2298031C2
:1012E0007A2388313C082100DC0080312000432231
:1012F00088312100C80A0319C90ACE0A4E080A3CDF
:101300000318B029CE01CA0A0319CB0A4608FF3CCC
:10131000D000FF30D1004708D13B4B08DD004A0820
:10132000DC005108DF005008DE008031200042243C
:101330008831F8080319AF29803145208831A51577
:10134000B80A0319B90A21004708D2004608D1009B
:1013500080312000702588310530F800E229210015
:101360006829200080314520883121004708D200BB
:101370004608D10080312000702588312100CD0140
:10138000CC01803120007A2388313C082100DC0028
:1013900080312000432288318E1CD4292100CC0AC0
:1013A0000319CD0AD72920002100CD01CC01CD0899
:1013B000031DDE294C08633C0318C12920003C169C
:1013C0000230F80078082100C4004408053C031DE1
:1013D000F429A101A0012000EF01EE01ED01EC01D3
:1013E0000530F800F72921000230F80020007808C5
:1013F000053C031D072A2516F830A5052514B80A53
:101400000319B90A1030BC050130F800942A2100F4
:101410002B08C200803120001A268831780821006C
:10142000AB002B08023C03191A2A2B08F8002000F5
:10143000942A21002B08C2008031200064268831C4
:1014400078082100AB002B08053C031D352A20003D
:101450002516F830A5052514B80A0319B90A103065
:10146000BC050130F800942A21002B08C20020009E
:10147000002078082100AB002B08053C031D4E2AF4
:1014800020002516F830A5052514B80A0319B90A55
:101490001030BC050130F800942A210020003708E4
:1014A000033C031C932A031D592A3608E73C031CFE
:1014B000932AB708031D672A3608283C031C672AAD
:1014C000F830A50525140130F800942A932A250840
:1014D0000839083C0319932A003010180130210004
:1014E000AC00C4010A30C300C6011430C500C801F5
:1014F0002C08C70044082000C10021004308200038
:10150000C000210046082000BF002100450820003F
:10151000BE00210047082000BD00C901C80121000C
:1015200093152000A515EA288831B72B8031752343
:101530008831BC013C15F830A505251480317A238B
:1015400088313C082100DC008031200043228831B2
:1015500021002B08C2008031200064268831210040
:101560002B08C2002000002021002B08C20080317F
:1015700020001A26883178082100AB002B0BC12AE5
:10158000C72A2000251221002B08F800272B2B0842
:10159000AD00F308031DF42A20000D18D52A210000
:1015A000A40A0319A50AD82A20002100A501A40134
:1015B000A508031DDF2A2408C83C0318F32A0130BC
:1015C000F30080312000F82588312100C4010A3061
:1015D000C300C6011430C5000130C70080312000AF
:1015E000FF25883121000C2B20000D1CFD2A210035
:1015F000A40A0319A50A002B20002100A501A401BB
:10160000A508031D072B24080A3C03180C2BF30123
:10161000A501A4010230AD002D08F8007808AB0048
:101620002B08023C031D242B8031200034228831FA
:10163000B501B4013830B700A430B600CC0A02308E
:10164000A500F8002100272B20009E2A21008831C8
:101650002000C02B803175238831BC013C14F83048
:10166000A505251580317A2388314B1C3A2B013092
:10167000F800562B3C082100DC008031200043227A
:10168000883121002B08C200803120001A268831C1
:1016900078082100AB002B08043C0319542B2B08BD
:1016A000F8002000562B21002000322B8831C92B56
:1016B0007230210099002000BB01BA01C701C601A8
:1016C000C901C801CA014B10CC01EB01EC01ED01CD
:1016D000EF01EE0107302100A100D030A000F001A1
:1016E000F101A301A201F201A501A401F301A701E7
:1016F000A601F401F501F601FB01FC010130FD003A
:10170000FE01A9012F0091019201980199019A010E
:101710009B019C019D0123008C01900128008C01FC
:101720008D012200920191012100A8018031200049
:10173000812A88318031622B883105302300910065
:1017400095131514130807392100AA002A08023A34
:1017500020000319B22B033A0319BB2B053A0319D6
:10176000C42BCE2B21002A08AB002000E1287808EA
:101770002100AA00D12B21002A08AB002000962AC4
:1017800078082100AA00D12B21002A08AB002000F4
:101790002A2B78082100AA00D12B2000013021003B
:0617A000AA00A62B630065
:020000040001F9
:04000E00E439FF1EB4
:00000001FF
;PIC16F1947
;CRC=E55A  CREATED="19-Sep-19 12:08"
