:0600000088317B2A00009C
:0800080083018031200077081C
:10001000A0007808A1007908A2007A08A300850151
:1000200091308400001C162811183B28850191305E
:100030008400001E1D28111A3D288501913084007E
:10004000801E2428911A3F28850193308400801C4B
:100050002B2893184128850193308400801D322875
:10006000931943282008F7002108F8002208F90016
:100070002308FA000900803153288031E0298031BB
:10008000D52880315A288031812825008C110C1206
:10009000000000000C138C120D30F700F70B4E28F7
:1000A0002000181008004520BB010130BA001110D3
:1000B00080313228C60A0319C70A47084502031CC3
:1000C0006928031D672846084402031C6928BC15DB
:1000D0007228BC114A0B7228210093102000931043
:1000E000C701C60143084702031C7E28031D7C2864
:1000F00042084602031C7E28C701C60193108031C6
:100100003228C80A0319C90A49084102031C902869
:10011000031D8E2848084002031C90283D08BC049B
:1001200041084902031C9D28031D9A2848084002E3
:1001300003189D283D08FF3ABC053F084902031CEF
:10014000A928031DA72848083E020318A928C901A9
:10015000C80193118031322808302200EC02031CC0
:10016000BE2820308500EC3084000310800C00088D
:100170000319BE28BC280000800BBB282000080003
:1001800020308500EB30840000080319D4280230A9
:10019000F800F701F70BCA28F80BC9289730F700C9
:1001A000F70BD028800BC72808004630750784005D
:1001B000203085000318850A2300190880001D08D7
:1001C0000239023C031DE6281D121D162000660898
:1001D000023C0319EE28F5010130FC00750BF228F2
:1001E0006708FB00F508031902297508033C031C86
:1001F0000229463075078400203085000318850ADF
:100200000008F60603307B077502031CD5296A082F
:100210007602031DBF2968084D02031919294D08EC
:100220000A3C031C1929CD0803191929E808031DE4
:10023000BF29F60123001D122100111223009E1672
:1002400025008C14200069084A3C031D3B29CD0180
:100250000B08F7008B1323009101930195131515DB
:1002600055309600AA309600951477088B0495189F
:1002700037291511200069081E3C031D6E296808E6
:10028000CD000B08F7008B132300910120004D08CF
:10029000230093009513151555309600AA3096004B
:1002A000951477088B0495185329151101302000F7
:1002B000CF004D08D0001E30D10002302200B8001F
:1002C000F830EC002000AC202200B80B602902308E
:1002D00023009A00F60121001116200069082D3C28
:1002E000031DBE291730CF004D08D0002D30D1009E
:1002F0002508D2005208F6064C08D3005308F6062B
:100300002808D4002908FA01D5002A08D6002B08AD
:10031000FA01D7002C08D8002D08FA01D9002E08C0
:10032000DA002F08FA01DB003008DC003108FA019E
:10033000DD003208DE003308FA01DF003408E00097
:100340003508FA01E1003608E2003708FA01E30057
:100350003808E4003908FA01E50002302200B8004C
:10036000F830EC002000AC202200B80BB02902309D
:1003700023009A00F601210011162000D229230043
:100380001D1219302200EB002000C0209112230022
:1003900019082200B600230019082200B600230025
:1003A0001D162000F501F601DD29FC080319DC29E2
:1003B000F501FC01F601DD29F50A911280313228A0
:1003C0004F082100A800023028077D020319EA29FE
:1003D0000318102A8530F700F70BEC292E307D0723
:1003E0008400203085000318850A000823009A0045
:1003F000FD080319042A2E307D0784002030850073
:100400000318850A0008FE06FD0A023021002807AD
:100410007D0203190F2A031C0F2A0130A900302A7C
:10042000290B302A01302200EB002000C0202100DF
:100430001112A9017E0823009A0001302200EB006E
:100440002000C020FE0123009E120130FD001D1679
:1004500025008C10230019082200B6002100111677
:100460002000111280313228A901A801AB01AA0194
:10047000AD01AC01AF01AE01B101B001B301B201F8
:10048000B901B801080021005C080139013C031DD5
:100490004D2A25000D144F2A210025000D102100A2
:1004A0005C080239023C031D592A200010145B2A03
:1004B00021002000101021005C080439043C031DB9
:1004C000652A20009014672A210020009010210046
:1004D0005C080839083C031D712A20000D15732A99
:1004E000210020000D1121005C081039103C031D73
:1004F0007D2A25008C177F2A210025008C132000DF
:10050000080072302100990020008C018D018E01BD
:100510008F01900125008C018D0121008C01033099
:100520008D008F308E008F019001053026008C00E9
:100530000C308D001D3021009D0093309E00230063
:100540008C01083028008D0004308C0080302000A1
:10055000980027309B009A01C330280096009D0028
:100560007F3097009E001830210097008B012300F8
:100570009901990191019513151413082000CD00DC
:100580000530230091009513151413082000A500D1
:100590000330230091009513151413082000B701B0
:1005A000B600043023009100951315141308FA01C6
:1005B000FA0000302000B6077A08B73D3422250F34
:1005C000E22AE62A360F342B370F342B0130A500F0
:1005D0003E30B7008030B6000B08F7008B130530B3
:1005E0002300910020002508230093009513151582
:1005F00055309600AA309600951477088B0495180C
:10060000FF2A15110B08F7008B130330910020000F
:100610003608230093009513151555309600AA301F
:100620009600951477088B049518142B151120004B
:100630003708FA012100AB000B08F7008B130430D8
:100640002300910021002B0823009300951315151A
:1006500055309600AA309600951477088B049518AB
:100660002F2B15113E2B2000A5013930B500D030BD
:10067000B4003608B4023708B53B230020003C160E
:100680003C082100DC0020004322CC018230220003
:100690009E0020309F000B309700213021009100F8
:1006A0009201930194012000910192019301940120
:1006B0000B178B170730210095003F3020009C005E
:1006C0008831B82A193023009B009C0180309D009E
:1006D00024309E009F0125008C1023001D16190850
:1006E0002100AB0088312000BB2A2100931120009B
:1006F000931108002100E001DF01DE01DD01DC01D2
:100700005C08023C031C9F2B0D30F700F70B862B77
:100710009D149D18892BDC0803199D2BFA01E20119
:10072000FA011B086207F8001C08FA3D7808DD078B
:100730007A08DE3D0030DF3DE03DDC0A802B03100F
:10074000E00CDF0CDE0CDD0C5E08023C031CF82B19
:10075000031DAE2B5D08EC3C031CF82B013024007C
:10076000D8000B08F7008B13053023009100200000
:100770002508230093009513151555309600AA30CF
:100780009600951477088B049518C42B15110B0847
:10079000F7008B13033091002000360823009300EC
:1007A0009513151555309600AA30960095147708C4
:1007B0008B049518D92B151120003708FA01210058
:1007C000E2000B08F7008B13043023009100210096
:1007D0006208230093009513151555309600AA3032
:1007E0009600951477088B049518F42B15112100A9
:1007F00064002000911CFA2B911008009601210042
:100800005D082000970021005C082000960025006C
:100810000C170330F700F70B0B2C0C1620001814E4
:10082000080022001519262C2000A4018B1BA417F8
:100830008B1302302200EB002000C020A41B8B177A
:1008400022001519262C0130F800282C0030F80061
:10085000200008001708FA001608F70017087A02A7
:10086000031D2A2C77082100E4007A08E5005E08C1
:100870006402E0005F08653BE1005C08023C031D88
:100880005A2CDD08031D5A2CE108031D4E2C60086C
:100890001D3C031C4E2C0130F800952C2000112427
:1008A000F8080319582C0130F8002100952C20007D
:1008B000922C2100DD08031D612C5C08023C03180A
:1008C000912C20001124F80803196B2C0130F8003A
:1008D0002100952C20002100A608031D772CA708D5
:1008E000031D772C6108A7006008A600912C26083C
:1008F0006002E2002708613BE3006108A70060088E
:10090000A600E308031D912C62080F3C031C912CE8
:10091000F40A7408023C0318912CF4010130F80029
:10092000952C20000030F800210020000800220053
:10093000A301A20121006A082200A1002100690888
:100940002200A0002308A7002208A6002108A50075
:100950002008A400AB01AA01A9016430A80020303E
:10096000B300AF01B001B101B2012708FA002608B7
:10097000F9002508F8002408F7000310771CCE2C96
:100980002808AF0729080318290FB0072A080318F9
:100990002A0FB1072B0803182B0FB207B20CB10CAA
:1009A000B00CAF0CFA0CF90CF80CF70CB30BBD2C17
:1009B0007A082100EE007908ED007808EC0077084D
:1009C000EB0083106E082200A30021006D082200B6
:1009D000A20021006C082200A10021006B08220067
:1009E000A000A701A6010330A5003130A4008318A0
:1009F000FD2C20308500AA308400F701F801F901B0
:100A0000FA01AA01AB01AC01AD01270826042504B7
:100A1000240403193B2D2030AE000310A00DA10DBE
:100A2000A20DA30DAA0DAB0DAC0DAD0D27082D0227
:100A3000031D242D26082C02031D242D25082B021E
:100A4000031D242D24082A02031C352D2408AA0284
:100A50002508031C250FAB022608031C260FAC0239
:100A60002708031C270FAD020314F70DF80DF90D2D
:100A7000FA0DAE0B0D2D2A0880002B08813F2C08A3
:100A8000823F2D08833F7A082100EE007908ED00AF
:100A90007808EC007708EB000530EB070030EC3D00
:100AA000ED3DEE3D6B08F8006C08F90020000800F1
:100AB0001708FA001608F70017087A02031D582DC8
:100AC00077082100D3007A08D40020003A0B792D52
:100AD000BB08031D792D21005208EA005108E900E6
:100AE0002000972479082100D4007808D3009B2D9A
:100AF000200021005308FF3CD3005408031C540F6E
:100B0000832DFF30842DFF3CD40053085102D300C5
:100B10005408031C540F8E2D52088F2D5202D400FE
:100B20005408EA005308E9002000972479082100BE
:100B3000D4007808D3005108DF3C031DB12D5208C2
:100B4000023C031DB12D2000B00A0319B10A210097
:100B500053082000B207210054082000B33DBD2DEA
:100B600021002000AC0A0319AD0A2100530820001F
:100B7000AE07210054082000AF3D2100530820009B
:100B8000B407210054082000B53D2100530820007F
:100B9000B602210054082000B73B37089B3C0318DD
:100BA000DA2DFF3A031DD82D36083F3C0318DA2D05
:100BB000B701B601BB01BA01960197019601080081
:100BC0002100931020009310C701C60108002100E6
:100BD00044082000C500210043082000C400210073
:100BE00046082000C300210045082000C200210063
:100BF00047082000CA00C701C601931021009314C2
:100C000020000800F208031D332E0E190D2E2100BE
:100C1000A20A0319A30A102E20002100A301A20199
:100C2000A308031D172E2208023C0318312E0310BF
:100C3000C20D4208043C03181F2E0130C200A3015C
:100C4000A2010130F2002000E0252100C40105309E
:100C5000C300C6010F30C5000130C7002000E725E2
:100C60002100482E20000E1D3B2E2100A20A031950
:100C7000A30A3E2E20002100A301A201A308031D08
:100C8000452E22080A3C0318482EF201A301A201B6
:100C90004208F800200008002100C301C501C4017A
:100CA00020008E19552EF00A562EF0017008033CD4
:100CB0000318092FBC112100DD01DC012000FE23F7
:100CC0008E19C62E3C082100DC00200043227A2326
:100CD0002100C30A43080A3C0318C42EC301C40AF6
:100CE0000319C50A4508DD004408DC00DF01DE0108
:100CF00020002A24F8080319C32E452021004208A9
:100D0000023C031DC42E20001708FA001608F70045
:100D100017087A02031D842E77082100C8007A087C
:100D2000C9004908EA004808E9002000972479082A
:100D30002100C7007808C60046082000B40721003B
:100D400047082000B53D210046082000B6022100DA
:100D500047082000B73B37089B3C0318B82EFF3AE2
:100D6000031DB62E36083F3C0318B82EB701B60156
:100D7000210046082000A807210047082000A93DBF
:100D80000530F8000C2F21002000602E45202100A6
:100D90004208023C031D0A2F20001708FA0016081B
:100DA000F70017087A02031DCD2E77082100C8002E
:100DB0007A08C9004908EA004808E9002000972499
:100DC00079082100C7007808C60046082000B4074B
:100DD000210047082000B53D210046082000B6024A
:100DE000210047082000B73B37089B3C0318012F20
:100DF000FF3A031DFF2E36083F3C0318012FB701B1
:100E0000B601210046082000A8072100470820005D
:100E1000A93D21004208F800200008002100C3017C
:100E2000C501C40120008D18172FF10A182FF101F8
:100E30007108033C0318DC2FBC112100DD01DC012B
:100E40002000960121005D082000970021005C0829
:100E50002000960025008C160330F700F70B2E2F8C
:100E60008C15200018148D18992F3C082100DC00E7
:100E7000200043227A232100C30A43080A3C0318B6
:100E8000972FC301C40A0319C50A4508DD004408A9
:100E9000DC00DF01DE0120002A24F8080319962F68
:100EA000452021004208023C031D972F200017080F
:100EB000FA001608F70017087A02031D572F770863
:100EC0002100C8007A08C9004908EA004808E9007A
:100ED0002000972479082100C7007808C60046083A
:100EE0002000AA07210047082000AB3D210046084A
:100EF0002000B402210047082000B53B210046082D
:100F00002000B607210047082000B73D35089B3C6C
:100F10000318932FFF3A031D912F34083F3C031809
:100F2000932FB501B4010530F800DF2F2100200018
:100F3000332F452021004208023C031DDD2F2000F5
:100F40001708FA001608F70017087A02031DA02FE9
:100F500077082100C8007A08C9004908EA00480853
:100F6000E9002000972479082100C7007808C6000E
:100F700046082000AA07210047082000AB3D2100B9
:100F800046082000B402210047082000B53B21009C
:100F900046082000B607210047082000B73D350865
:100FA0009B3C0318DC2FFF3A031DDA2F34083F3C2B
:100FB0000318DC2FB501B40121004208F80020001D
:020FC000080027
:10100000803175238831BC011230BC00F830A50551
:10101000A51480317A2388314B1C11280130F80047
:10102000B5293C082100DC008031200043228831B2
:101030002100200821040319212820080319A103F5
:10104000A003A008031D2F28A108031D2F28073087
:10105000A100D030A0002000ED01EC012100200013
:101060006D08093C03184B28EE0A0319EF0A6F08B4
:10107000033C031C4628031D41286E08E73C031C63
:1010800046283C120230F80016294B28EF01EE01E9
:10109000ED01EC013C168E184F28EB0A5028EB01AD
:1010A0006B08033C03181229EB016C08003C031881
:1010B000612802302100C300DF30C2002000ED0AA9
:1010C000682802302100C300DF30C2002000EC0A93
:1010D0003C1207302100A100D030A0004308C70017
:1010E0004208C600CB01CA01CE014608FF3CD00031
:1010F000FF30D1004708D13B5108DD005008DC002B
:1011000080312000FE2388312100C901C801200060
:10111000BA08031DD128BB08031DD12880317A23CA
:1011200088313C082100DC008031200043228831D6
:101130002100C80A0319C90ACE0A4E080A3C03183E
:10114000CF28CE01CA0A0319CB0A4608FF3CD000BB
:10115000FF30D1004708D13B4B08DD004A08DC00D6
:101160005108DF005008DE00803120002A24883139
:10117000F8080319CE28803145208831A515B80A12
:101180000319B90A21004708D2004608D10080316E
:101190002000582588310530F800012921008728D2
:1011A000200080314520883121004708D2004608C0
:1011B000D10080312000582588312100CD01CC019B
:1011C000803120007A2388313C082100DC00803106
:1011D0002000432288318E1CF3282100CC0A0319F9
:1011E000CD0AF62820002100CD01CC01CD08031D39
:1011F000FD284C08633C0318E02820003C16023010
:10120000F80078082100C4004408053C031D132998
:10121000A101A0012000EF01EE01ED01EC0105307C
:10122000F800162921000230F80020007808053C5B
:10123000031D26292516F830A5052514B80A03191B
:10124000B90A1030BC050130F800B52921002B087F
:10125000C200803120000226883178082100AB00CE
:101260002B08023C031939292B08F8002000B52966
:1012700021002B08C200803120004C2688317808DC
:101280002100AB002B08053C031D54292000251626
:10129000F830A5052514B80A0319B90A1030BC05A1
:1012A0000130F800B52921002B08C2008031200050
:1012B0000E27883178082100AB002B08053C031D60
:1012C0006F2920002516F830A5052514B80A031942
:1012D000B90A1030BC050130F800B5292100200002
:1012E0003708023C031CB429031D7A293608933CB5
:1012F000031CB429B708031D88293608283C031CA1
:101300008829F830A50525140130F800B529B4293D
:1013100025080839083C0319B42900301018013099
:101320002100AC00C4010A30C300C6011430C5005E
:10133000C8012C08C70044082000C1002100430850
:101340002000C000210046082000BF002100450801
:101350002000BE00210047082000BD00C901C801CF
:10136000210093152000A51509288831D62A80313F
:1013700075238831BC013C15F830A5052514803152
:101380007A2388313C082100DC0080312000432290
:10139000883121002B08C200803120004C26883182
:1013A00021002B08C200803120000E278831210047
:1013B0002B08C200803120000226883178082100E5
:1013C000AB002B0BE429EA292000251221002B0871
:1013D000F8004A2A2B08AD00F308031D172A200045
:1013E0000D18F8292100A40A0319A50AFB292000D9
:1013F0002100A501A401A508031D022A2408C83C58
:101400000318162A0130F30080312000E0258831CE
:101410002100C4010A30C300C6011430C5000130E8
:10142000C70080312000E725883121002F2A2000C5
:101430000D1C202A2100A40A0319A50A232A200032
:101440002100A501A401A508031D2A2A24080A3C9D
:1014500003182F2AF301A501A4010230AD002D08C5
:10146000F8007808AB002B08023C031D472A8031A6
:10147000200034228831B501B4013930B700D030B2
:10148000B600CC0A0230A500F80021004A2A20004C
:10149000BF29210088312000DF2A8031752388315F
:1014A000BC013C14F830A505251580317A2388311C
:1014B0004B1C5D2A0130F800792A3C082100DC0031
:1014C000803120004322883121002B08C200803166
:1014D00020000226883178082100AB002B08043C4C
:1014E0000319772A2B08F8002000792A2100200010
:1014F000552A8831E82ABB01BA01C701C601C901D2
:10150000C801CA014B10CC01EB01EC01ED01EF0168
:10151000EE0107302100A100D030A000F001F10160
:10152000A301A201F201A501A401F301A701A601F3
:10153000F401F501F601FB01FC010130FD00FE01A3
:10154000A9012F0091019201980199019A019B0133
:101550009C019D0123008C01900128008C018D01CC
:101560002200920191012100A80180312000812AEE
:1015700088318031622B883105302300910095132A
:101580001514130807392100AA002A08023A20007E
:101590000319D12A033A0319DA2A053A0319E32A6F
:1015A000ED2A21002A08AB0020000028780821003D
:1015B000AA00F02A21002A08AB002000B7297808E9
:1015C0002100AA00F02A21002A08AB0020004D2AA1
:1015D00078082100AA00F02A200001302100AA008A
:0415E000C52A6300B5
:020000040001F9
:04000E00E439FF1FB3
:00000001FF
;PIC16F1947
;CRC=0EB4  CREATED="23-May-18 21:24"
