:04000000A0EF1FF05E
:08000800046ED8CF05F0E0CF33
:1000100006F00001E9CF0CF0EACF07F0E1CF08F0DD
:10002000E2CF09F0D9CF0AF0DACF0BF0F3CF12F01C
:10003000F4CF13F0FACF14F0F5CF15F0F6CF16F099
:10004000F7CF17F000C00EF001C00FF002C010F0A3
:1000500003C011F09DA230EF00F09EB215EF04F046
:100060000EC000F00FC001F010C002F011C003F08C
:100070000CC0E9FF07C0EAFF078E08C0E1FF09C016
:10008000E2FF0AC0D9FF0BC0DAFF12C0F3FF13C0B2
:10009000F4FF14C0FAFF15C0F5FF16C0F6FF17C035
:1000A000F7FF045006C0E0FF05C0D8FF1000F76A54
:1000B000BE0FF66E000EF7220900F55012004C6FCD
:1000C0006F570000F76AD40FF66E000EF722090092
:1000D000F550120031300000F76AE80FF66E000E9E
:1000E000F7220900F55012002E5458540000F76A08
:1000F000FE0FF66E000EF7220900F5501200545262
:1001000041494C45523A0000F76A180FF66E010E4D
:10011000F7220900F550120020554E49543A2000AC
:10012000F76A300FF66E010EF7220900F550120043
:100130000D0A0000F76A440FF66E010EF72209005F
:10014000F5501200444154452C54494D452C4D4125
:100150004E55414C204657442C4D414E55414C2064
:100160004241434B2C00F76A760FF66E010EF722E0
:100170000900F55012004D41494E20464C55534858
:100180002C4D41494E2042414720555345442C5364
:10019000454320464C5553482C00F76AAA0FF66E8B
:1001A000010EF7220900F550120053454320424149
:1001B0004720555345442C42414720555345442C34
:1001C000424147204C4546542C00F76ADA0FF66E40
:1001D000010EF7220900F55012004E4F20424C4FFD
:1001E000434B532C4E4F205245534554532C4D4FA7
:1001F00044450D0A0000F76A060FF66E020EF7225C
:100200000900F55012000000F76A180FF66E020E92
:10021000F7220900F55012002C00F76A2A0FF66E3B
:10022000020EF7220900F550120052554E0D0A0039
:10023000F76A400FF66E020EF7220900F550120021
:100240005352560D0A00F76A560FF66E020EF72249
:100250000900F55012004F46460D0A00F76A6C0F70
:10026000F66E020EF7220900F55012002020202021
:100270002020202020200000F76A880FF66E020E52
:10028000F7220900F550120020202000F76A9C0F89
:10029000F66E020EF7220900F550120020202020F1
:1002A000202020202020202020202020202020204E
:1002B0000000F76AC20FF66E020EF7220900F55031
:1002C0001200554E49542020203A20202020202082
:1002D0002020202020200000F76AE80FF66E020E92
:1002E000F7220900F550120000001F003B005A00E1
:1002F00078009700B500D400F300110130014E01E1
:10030000F76A100FF66E030EF7220900F55012007F
:10031000555342204143544956450000F76A2C0F7B
:10032000F66E030EF7220900F550120020205553F7
:100330004220464C415348204452495645202020F3
:100340000000F76A520FF66E030EF7220900F5500F
:1003500012004D495353494E47202D20494E5345D5
:100360005254205553420000F76A780FF66E030E80
:10037000F7220900F55012004445564943452041F3
:100380004E4420505245535320454E540000F76AC6
:100390009E0FF66E030EF7220900F5501200505220
:1003A00045535320555020464F52204E4F20555311
:1003B00042200000F76AC40FF66E030EF722090010
:1003C000F550120020202020494E495449414C4903
:1003D00053494E47202020200000F76AEA0FF66EAE
:1003E000030EF7220900F55012002020202020558E
:1003F00053422044455649434520202020200000F8
:10040000F76A100FF66E040EF7220900F55012007D
:1004100053657420547261696C65722049442020D0
:10042000202020200000F76A360FF66E040EF72217
:100430000900F5501200532F5220556E6974204167
:10044000646472657373657320200000F76A5C0F43
:10045000F66E040EF7220900F55012005365742061
:1004600054696D6520616E642044617465202020AC
:100470000000F76A820FF66E040EF7220900F550AD
:100480001200457869742020202020202020202080
:100490002020202020200000F76AA80FF66E040E0E
:1004A000F7220900F550120053657420556E6974E7
:1004B0002041646472657373657320200000F76ADD
:1004C000CE0FF66E040EF7220900F55012005265A9
:1004D00073657420416C6C2061646472657373652C
:1004E00073200000F76AF40FF66E040EF72209007D
:1004F000F55012002141424F555420544F2052458F
:1005000053455420414C4C210000F76A1A0FF66EF7
:10051000050EF7220900F550120020202041524517
:1005200020594F5520535552453F3F202020000071
:10053000F76A400FF66E050EF7220900F55012001B
:1005400020507265737320454E5420746F20616291
:100550006F7274200000F76A660FF66E050EF722C0
:100560000900F55012002050726573732055502019
:10057000726573657420414C4C200000F76A8C0F43
:10058000F66E050EF7220900F550120020202020FB
:10059000202020202020202020202020202020007B
:1005A000F76AB00FF66E050EF7220900F55012003B
:1005B0005573652055702F446F776E20746F2073CC
:1005C000656C20200000F76AD60FF66E050EF72244
:1005D0000900F5501200507265737320456E742047
:1005E0007768656E20646F6E65200000F76AFC0F07
:1005F000F66E050EF7220900F55012004D41582005
:1006000041444452455353205245414348454420B8
:100610000000F76A220FF66E060EF7220900F55069
:10062000120053657420556E6974204164647265CC
:100630007373202020200000F76A480FF66E060E24
:10064000F7220900F5501200507265737320456E51
:1006500074657220746F2045786974200000F76A11
:100660006E0FF66E060EF7220900F550120050725A
:1006700065737320555020746F2073657420616416
:1006800064720000F76A940FF66E060EF7220900F6
:10069000F550120020214F5045524154494F4E20F1
:1006A0004641494C454421200000F76ABA0FF66ED6
:1006B000060EF7220900F550120020202041444484
:1006C0005245535320534554204F4B2020200000C7
:1006D000F76AE00FF66E060EF7220900F5501200D9
:1006E0004D415820414444524553532052454143C3
:1006F000484544210000F76A060FF66E070EF72200
:100700000900F55012002020202020506C656173F4
:10071000652057616974202020200000F76A2C0FA3
:10072000F66E070EF7220900F55012002020524500
:10073000534554205355434345535346554C20206D
:100740000000F76A520FF66E070EF7220900F55007
:100750001200454E544552204441544520205959D9
:10076000204D4D2044440000F76A780FF66E070EC6
:10077000F7220900F5501200454E544552205449C5
:100780004D4520204848204D4D2053530000F76A26
:100790009E0FF66E070EF7220900F5501200434F28
:1007A0004D4D53204641494C0000F76ABA0FF66E92
:1007B000070EF7220900F5501200424C4F434B41FF
:1007C00047452020000004013A5139253D6F966AC3
:1007D000869686903D518009846E838000008390C8
:1007E000210E006E002EFED73CC403F03BC4E9FF8F
:1007F00003C0EAFFEF5216E03E913CC403F03BC455
:10080000E9FF03C0EAFFEFCF84FF868686908380EE
:10081000000083903B2BD8B43C2B210E006E002EA1
:10082000FED7E2D70000000112000101552B010E96
:100830000001A36F9EC0AEF3A051016E09E0D890F5
:100840000301AE33012E01D002D00001F8D7000120
:100850009FC0AFF3A051016E09E0D8900301AF3300
:10086000012E01D002D00001F8D70001010155513D
:100870001908D8A0C3D0542D7CD0030EEA6E990E6F
:10088000E96E000E0001EADC0A000900F550EE6E88
:100890000009FBE19EA10AD00401396B0A0E3A6FF0
:1008A000030E3C6F990E3B6F00018DDF030EEA6E65
:1008B000990EE96E000EE0DC0A000900F550EE6EBC
:1008C0000009FBE10301AEA30CD0400E0401396F17
:1008D000060E3A6F030E3C6F990E3B6F000173DFFB
:1008E0000301AEA50CD0140E0401396F060E3A6F49
:1008F000030E3C6F990E3B6F000165DF0301AEA74D
:100900000CD0540E0401396F060E3A6F030E3C6F83
:10091000990E3B6F000157DF0301AFA30CD0400ECF
:100920000401396F100E3A6F030E3C6F990E3B6F46
:10093000000149DF0301AFA50CD0140E0401396F8B
:10094000100E3A6F030E3C6F990E3B6F00013BDFB8
:100950000301AFA70CD0540E0401396F100E3A6F8B
:10096000030E3C6F990E3B6F00012DDF030142D057
:100970000101030EEA6E990EE96E000E000186DC9D
:100980000A000900F550EE6E0009FBE10301AEA17B
:100990000AD00401396B3A6B030E3C6F990E3B6F22
:1009A000000111DF0301AEA30BD0400E0401396F2B
:1009B0003A6B030E3C6F990E3B6F000104DF03019D
:1009C000AEA50BD0140E0401396F3A6B030E3C6FC9
:1009D000990E3B6F0001F7DE0301AEA70BD0540E5A
:1009E0000401396F3A6B030E3C6F990E3B6F0001A7
:1009F000EADE0301839E869886D00101542D58D0EB
:100A00000401396B3A6B3C6BD60E3B6F0001DBDEA9
:100A1000010EA025150DF3500301B16BB06FD60E7A
:100A2000B025016E000EB121036E01C0B2F3B36FA9
:100A3000400E0401396F3A6B03C03CF401C03BF433
:100A40000001C1DE020EA025150DF3500301B16BAC
:100A5000B06FD60EB025016E000EB121036E01C03D
:100A6000B2F3B36F140E0401396F3A6B03C03CF458
:100A700001C03BF40001A7DE030EA025150DF350C5
:100A80000301B16BB06FD60EB025016E000EB1211F
:100A9000036E01C0B2F3B36F540E0401396F3A6BA9
:100AA00003C03CF401C03BF400018DDE25D0010100
:100AB0000401396B3A6B3C6BD60E3B6F000183DE51
:100AC000400E0401396F3A6B3C6BEB0E3B6F00013B
:100AD0007ADE140E0401396F3A6B010E3C6F3B6BEA
:100AE000000171DE540E0401396F3A6B010E3C6F48
:100AF000150E3B6F000167DEA15301E08688A2530B
:100B000001E0838E030101015551310801E2556B6B
:100B10009E92000130EF00F0D36A806A816A826A97
:100B2000836A846A856A866A926A936AA00E946E62
:100B3000600E956E966A3E0E976E240E986E1D0E90
:100B4000C26E300EC16EB50EC06E800E0F01256FE5
:100B5000236B060ECD6E180ED16EF26A9D6AA06AE6
:100B6000A36AB66A7F0ECA6E9F0ECB6ECC6A9E9247
:100B7000CC6A9D82C00EF212F2CF50F2F29E636AEE
:100B8000010E626E7F9C7F9E7F806150020150BF8C
:100B9000F28E0A0816E2F250006EF29E636A010EAF
:100BA000626E616A7F9C7F9E7F840F01550E7E6E10
:100BB000AA0E7E6E7F827FB2FED77F940050F21223
:100BC00002010001DEEF1FF0AB6A190EAF6E656A1D
:100BD000800EAB6E040EAC6E12000F01226B190E6C
:100BE0001E6F206B800E226F240E216F8282000107
:100BF000E2EF1FF0020EEA6EFC0EE96EEF500DE020
:100C0000020E016E006A002EFED7012EFBD7970E52
:100C1000006E002EFED7EF2EF3D71200640E0201F5
:100C2000FC6F0001E7DF869686903C0E846E838021
:100C300000008390640E0201FC6F0001DBDF0C0EEC
:100C4000846E838000008390640E0201FC6F0001BB
:100C5000D1DF010E846E838000008390050E0201B7
:100C6000FC6F0001C7DF060E846E83800000839056
:100C7000640E0201FC6F0001BDDFE4EF1FF0020E05
:100C8000EA6EF40EE96E000E00EC02F00A000900B4
:100C9000F550EE6E0009FBE1EA6AD60EE96E020E2F
:100CA000E26EF40EE16EE752E6CFEEFFFCE1020EDB
:100CB000EA6EF40EE96E000E13EC02F00A00090071
:100CC000F550EE6E0009FBE1EA6AEB0EE96E020EEA
:100CD000E26EF40EE16EE752E6CFEEFFFCE1020EAB
:100CE000EA6EF40EE96E000E26EC02F00A0009002E
:100CF000F550EE6E0009FBE1010EEA6EE96A020EA4
:100D0000E26EF40EE16EE752E6CFEEFFFCE1020E7A
:100D1000EA6EF40EE96E000E39EC02F00A000900EA
:100D2000F550EE6E0009FBE1010EEA6E150EE96E5C
:100D3000020EE26EF40EE16EE752E6CFEEFFFCE14A
:100D400012000201F76BF751070815E3F6AF02D066
:100D5000828801D082988294D890F637828482AAC1
:100D600002D0F88101D0F891F751060802E3D8903B
:100D7000F837F72BE8D7F8C201F0000112000201A2
:100D8000F76B010EF86FFA6F020EFB6F040EFC6F2B
:100D9000080EFD6F0A0EFE6F140EFF6F280E030182
:100DA000006F0201F96BF651F95D10E2F551F8158B
:100DB00009E0036AF951FA0FE96E020E0320EA6EA8
:100DC000EF50F727D890F837F92BEDD7F7C201F09D
:100DD0000001120002016B91828682948286880E45
:100DE000F66F0001AEDF0201F66B0001AADF01C061
:100DF0006AF282966AC2F5F2070E0201F66F0001EE
:100E0000BEDF01C06AF2A53D11D002016A512C0873
:100E100006E22D0E6A5D0001A56F05D002010F0EDE
:100E20006A250001A56F02016B910001A551020125
:100E30006A5D0FE16A512C0806E22D0E6A5D000121
:100E4000A56F05D002010F0E6A250001A56F0201F2
:100E50006B81000E6BB1010E016E0001120085A6C0
:100E600005D00101566B576B05D0000101015753A6
:100E700001E1562B5651020805E2566B010E576FE1
:100E8000016E02D0000E016E0001120085A805D08F
:100E90000101586B596B05D000010101595301E163
:100EA000582B5851020805E2586B010E596F016E1C
:100EB00002D0000E016E0001120085AA05D00101CA
:100EC0005A6B5B6B05D0000101015B5301E15A2BAA
:100ED0005A51020805E25A6B010E5B6F016E02D097
:100EE000000E016E000112009E6BA06BF2CF6AF241
:100EF000F29E636A626A7F9C7F9E7F8061500201DE
:100F00006ABFF28E0001A66F200E0101006F000182
:100F1000A651400802E35A0EA66FA6515A0802E2F3
:100F2000410EA66FA6C009F1A353FEE0A36B020E0B
:100F3000EA6E550EE96E000E00EC02F00A000900A0
:100F4000F550EE6E0009FBE1EA6AD60EE96E020E7C
:100F5000E26E550EE16EE752E6CFEEFFFCE1020EC7
:100F6000EA6E550EE96E000ED0EC02F00A000900A0
:100F7000F550EE6E0009FBE1EA6AEB0EE96E020E37
:100F8000E26E550EE16EE752E6CFEEFFFCE1020E97
:100F9000EA6E550EE96E000E46EC01F00A000900FB
:100FA000F550EE6E0009FBE1010EEA6EE96A020EF1
:100FB000E26E550EE16EE752E6CFEEFFFCE1020E67
:100FC000EA6E550EE96E000EE3EC02F00A0009002D
:100FD000F550EE6E0009FBE1010EEA6E150EE96EAA
:100FE000020EE26E550EE16EE752E6CFEEFFFCE137
:100FF00036DF015206E0A62BA6515A0802E2410E46
:10100000A66F44DF015206E0A607A651400802E39E
:101010005A0EA66FA6C009F150DF015218E02FDE6C
:10102000F250006EF29E636A626AA6C061FF7F9C06
:101030007F9E7F840F01550E7E6EAA0E7E6E7F828C
:101040007FB2FED77F940050F21203D000016CD71C
:101050000F01010E00019E6F38EF10F0020EEA6ED4
:10106000F00EE96E000E4CEC02F00A000900F5509B
:10107000EE6E0009FBE1EA6AD60EE96E020EE26E40
:10108000F00EE16EE752E6CFEEFFFCE1020EEA6EF3
:10109000F00EE96E000E5FEC02F00A000900F55058
:1010A000EE6E0009FBE1EA6AEB0EE96E020EE26EFB
:1010B000F00EE16EE752E6CFEEFFFCE1020EEA6EC3
:1010C000F00EE96E000E46EC01F00A000900F55042
:1010D000EE6E0009FBE1010EEA6EE96A020EE26EB5
:1010E000F00EE16EE752E6CFEEFFFCE1020EEA6E93
:1010F000F00EE96E000E39EC02F00A000900F5501E
:10110000EE6E0009FBE1010EEA6E150EE96E020EAD
:10111000E26EF00EE16EE752E6CFEEFFFCE1120068
:10112000030EEA6E130EE96E000E46EC01F00A00A3
:101130000900F550EE6E0009FBE1EA6AD60EE96E91
:10114000030EE26E130EE16EE752E6CFEEFFFCE116
:10115000EA6AEB0EE96E030EE26E130EE16EE752E1
:10116000E6CFEEFFFCE1010EEA6EE96A030EE26EE5
:10117000130EE16EE752E6CFEEFFFCE1010EEA6EE0
:10118000150EE96E030EE26E130EE16EE752E6CF26
:10119000EEFFFCE1010EEA6E2A0EE96E030EE26E2E
:1011A000130EE16EE752E6CFEEFFFCE1010EEA6EB0
:1011B0003F0EE96E030EE26E130EE16EE752E6CFCC
:1011C000EEFFFCE11200090E0301975F0CE3030E32
:1011D000EA6E970EE96ED890EF32EF5004E001D03E
:1011E0000000EF2EFDD7000120EF09F003011A6B7C
:1011F000AC8A828000000000AC8A020E146F010EDF
:10120000156FF5C216F3F4C217F30201F551010A86
:10121000F4190301186F196B1951040816E3036AD6
:101220001951140FE96E030E0320EA6EEFCFADFFE4
:10123000ACA2FED7020E1C6FF80E976F0001C3D749
:1012400003011C2FF9D7192BE7D7AC9A8290000025
:101250000000AB98AB88AECF1BF3AECF1BF3AB88CF
:10126000CF6ACE6A9E90CD8017511E0803E01751B9
:101270004A083AE1196B1951040823E39EBA0AD0CF
:101280009EA007D0CD9000019FDC000E016EAAD079
:101290000301F4D7036A1951F60FE96E020E032019
:1012A000EA6EAECFEFFF0201F651020807E0CD90E3
:1012B00000018ADC000E016E95D002010301192B9A
:1012C000DAD70201F751F819F91903011A6F02016F
:1012D000FA5103011A5D07E0CD90000175DC000EA4
:1012E000016E80D003017BD017512D08D8A477D090
:1012F000196B9EBA09D09EA006D0CD90000E016E4B
:10130000000170D00301F5D7036A1951F60FE96E99
:10131000020E0320EA6EAECFEFFFCF6ACE6A9E9038
:101320000201F651020806E0CD90000E016E0001A8
:1013300059D002010301195310E0040E0201F725F0
:10134000FF0F0301195D09E2036A1951F60FE96EF7
:10135000020E0320EA6EEF501A1B192B040E020135
:10136000F7250301195DC5E3AECF19F319511A5DD5
:1013700007E0CD90000128DC000E016E33D00301A0
:10138000010E0201F55D140DF350036A240F016E86
:10139000000E032201C09CF0000103C09DF0030178
:1013A000196B195113081BE3195100019C25016E9B
:1013B000000E9D21036E03011D6F040E1925036AA3
:1013C000F60FE96E020E0320EA6EEFCF1EF31DC387
:1013D000EAFF01C0E9FF1EC3EFFF192BE2D7010EA0
:1013E000016E000112009E6BA06B9ADEF2CF72F2CA
:1013F000F29E636A010E626E7F9C7F9E7F806150C9
:10140000020172BFF28E010F596F5951060825E291
:10141000020EEA6E5C0EE96E000E0001F6EC02F0C0
:101420000A000900F550EE6E0009FBE1EA6AEB0ED6
:10143000E96E020EE26E5C0EE16EE752E6CFEEFF61
:10144000FCE10C0E0201726FFA0EFC6F0001FAEC67
:1014500005F00201722FF8D75CD10001A353FEE022
:10146000A36B02015951090806E3300E59255B6F41
:10147000200E5A6F04D0310E5A6F300E5B6F020E81
:10148000EA6E5C0EE96E000E000109EC03F00A0042
:101490000900F550EE6E0009FBE1EA6AD60EE96E2E
:1014A000020EE26E5C0EE16EE752E6CFEEFFFCE16B
:1014B0005AC2E8F05BC2E9F0020EEA6E5C0EE96E19
:1014C000000E1CEC03F00A000900F550EE6E000956
:1014D000FBE1010EEA6EE96A020EE26E5C0EE16E5D
:1014E000E752E6CFEEFFFCE1020EEA6E5C0EE96E1B
:1014F000000E2FEC03F00A000900F550EE6E000913
:10150000FBE1010EEA6E150EE96E020EE26E5C0E54
:10151000E16EE752E6CFEEFFFCE1CFDC01521CE0CA
:10152000010E0201595D726FF250006EF29E636A05
:10153000010E626E72C261FF7F9C7F9E7F840F01ED
:10154000550E7E6EAA0E7E6E7F827FB2FED77F948E
:101550000050F212DDD0000182DC0152D8B4D6D0A6
:101560009D921E0E0201F46F59C2F5F200013EDE9B
:101570000201719101B0718171B15ED09E92CC6A0D
:101580009D82020EEA6E5C0EE96E000E000146ECD2
:1015900001F00A000900F550EE6E0009FBE1010EB2
:1015A000EA6EE96A020EE26E5C0EE16EE752E6CF89
:1015B000EEFFFCE1020EEA6E5C0EE96E000E42ECFC
:1015C00003F00A000900F550EE6E0009FBE1010E80
:1015D000EA6E150EE96E020EE26E5C0EE16EE752E7
:1015E000E6CFEEFFFCE1010E0201595D726FF25091
:1015F000006EF29E636A010E626E72C261FF7F9C92
:101600007F9E7F840F01550E7E6EAA0E7E6E7F82B6
:101610007FB2FED77F940050F2120C0E0201726F5F
:10162000FA0EFC6F0001FAEC05F00201722FF8D7F8
:101630000F016ED06AD002019E92CC6A9D82020E8A
:10164000EA6E5C0EE96E000E0001BEEC02F00A00CC
:101650000900F550EE6E0009FBE1010EEA6EE96A41
:10166000020EE26E5C0EE16EE752E6CFEEFFFCE1A9
:10167000020EEA6E5C0EE96E000E55EC03F00A00F5
:101680000900F550EE6E0009FBE1010EEA6E150E41
:10169000E96E020EE26E5C0EE16EE752E6CFEEFFFF
:1016A000FCE10C0E0201726FFA0EFC6F0001FAEC05
:1016B00005F00201722FF8D7592B59510A0824E27C
:1016C000020EEA6E5C0EE96E000E000168EC03F09B
:1016D0000A000900F550EE6E0009FBE1EA6AEB0E24
:1016E000E96E020EE26E5C0EE16EE752E6CFEEFFAF
:1016F000FCE10C0E0201726FFA0EFC6F0001FAECB5
:1017000005F00201722FF8D70F010001A7D60F01D3
:1017100002010001ABEF0CF003DD020EEA6EF00EE9
:10172000E96E000E72EC02F00A000900F550EE6E50
:101730000009FBE1EA6AD60EE96E020EE26EF00ED7
:10174000E16EE752E6CFEEFFFCE1020EEA6EF00E2C
:10175000E96E000E85EC02F00A000900F550EE6E0D
:101760000009FBE1EA6AEB0EE96E020EE26EF00E92
:10177000E16EE752E6CFEEFFFCE1020EEA6EF00EFC
:10178000E96E000E98EC02F00A000900F550EE6ECA
:101790000009FBE1010EEA6EE96A020EE26EF00E4C
:1017A000E16EE752E6CFEEFFFCE1020EEA6EF00ECC
:1017B000E96E000EABEC02F00A000900F550EE6E87
:1017C0000009FBE1010EEA6E150EE96E020EE26EF3
:1017D000F00EE16EE752E6CFEEFFFCE106EF0CF013
:1017E0009E6BA06BF2CF6FF2F29E636A010E626E87
:1017F0007F9C7F9E7F80615002016FBFF28E596F88
:10180000595302E1010E596F000186D75DEC07F0D4
:101810000152D8A470D02FEC07F001526BE080DCAD
:10182000020EEA6E5A0EE96E000E7BEC03F00A001F
:101830000900F550EE6E0009FBE1EA6AD60EE96E8A
:10184000020EE26E5A0EE16EE752E6CFEEFFFCE1C9
:101850009D924A0E0201F46FF56B0001C7DC9E9267
:10186000CC6A9D820C0E02016F6FFA0EFC6F0001B4
:10187000FAEC05F002016F2FF8D7020EEA6E5A0E4D
:10188000E96E000E00018EEC03F00A000900F5502D
:10189000EE6E0009FBE1EA6AD60EE96E020EE26E18
:1018A0005A0EE16EE752E6CFEEFFFCE1F250006E19
:1018B000F29E636A010E626E616A7F9C7F9E7F84E6
:1018C0000F01550E7E6EAA0E7E6E7F827FB2FED70E
:1018D0007F940050F2120C0E02016F6FFA0EFC6F33
:1018E0000001FAEC05F002016F2FF8D700012EEC91
:1018F00008F001D08BD7010E016EADEF0CF0010E98
:101900009E6FA06B2EEC08F0A353FEE0A36B2FECB0
:1019100007F001520AE0D8909E339E5302E1080E70
:101920009E6F9EA502D0020E9E6F46EC07F00152FC
:101930000AE0D8909E379EA902D0010E9E6F9EA508
:1019400002D0080E9E6F5DEC07F001520AE09EB7D0
:1019500009D09EB148D59EB343D72EEC08F0010EB6
:101960009E6FD2D73FEC06F03AEF10F0236A1C0EC0
:10197000226E829400008286880E0201F66F0001BA
:10198000A1EC06F022C001F023C003F022C0F4F263
:10199000020123C0F5F2F66B0001A1EC06F0F5C2DE
:1019A000EAFFF4C2E9FF01C0EFFF010E2224016E3D
:1019B000000E2320036E01C0F4F20201F56FF66BF6
:1019C0000001A1EC06F0F5C2EAFFF4C2E9FF01C094
:1019D000EFFF020E2224016E000E2320036E01C0D1
:1019E000F4F20201F56FF66B0001A1EC06F0F5C20E
:1019F000EAFFF4C2E9FF01C0EFFF030E2224016EEB
:101A0000000E2320036E01C0F4F20201F56FF66BA5
:101A10000001A1EC06F0F5C2EAFFF4C2E9FF01C043
:101A2000EFFF0201F66B0001A1EC06F0040E222488
:101A3000016E000E2320036E01C0F4F20201F56F67
:101A4000F66B0001A1EC06F0F5C2EAFFF4C2E9FF73
:101A500001C0EFFF050E2224016E000E2320036E4D
:101A600001C0F4F20201F56FF66B0001A1EC06F083
:101A7000F5C2EAFFF4C2E9FF01C0EFFF829682944B
:101A800012000201FD51016AFC5D03E2FCC200F09C
:101A90000CD0006A080EFE6FFC370036FD51005C6A
:101AA000D8B0006E0136FE2FF7D700011200190ED4
:101AB0000201FB6FF651F45DD8A0F4C2F6F2F553C3
:101AC000D8B405D0F551F65DD8A0F5C2F6F2000104
:101AD0002FEC07F0015208E00201F62BF651F45DFD
:101AE000D8A0F5C2F6F2000146EC07F0015209E079
:101AF0000201F651F55D03E3F4C2F6F201D0F607F8
:101B000000015DEC07F001522CE00201F751150DC8
:101B1000F350FD6BFC6F036AF851FC25016EFD511B
:101B200003220150D60FE96E000E0320EA6EF9C2BF
:101B3000EFFFF751150DF350FD6BFC6F010EF8250B
:101B4000036AFC25016EFD5103220150D60FE96E98
:101B5000000E0320EA6EFAC2EFFFF6C201F074D065
:101B600000010201FB2BFB51320801E2FB6BFB5130
:101B7000180828E3F751150DF350FD6BFC6F036A4D
:101B8000F851FC25016EFD5103220150D60FE96E7C
:101B9000000E0320EA6E200EEF6EF751150DF35084
:101BA000FD6BFC6F010EF825036AFC25016EFD51EB
:101BB00003220150D60FE96E000E0320EA6E200EBC
:101BC000EF6E3BD0F6C2FCF20A0EFD6F000159DF4A
:101BD000300E01240201F96FF751150DF350FD6B22
:101BE000FC6F036AF851FC25016EFD510322015080
:101BF000D60FE96E000E0320EA6EF9C2EFFFF6C2BF
:101C0000FAF2FA51090803E20A0EFA5FFAD7300E27
:101C1000FA27F751150DF350FD6BFC6F010EF825F7
:101C2000036AFC25016EFD5103220150D60FE96EB7
:101C3000000E0320EA6EFAC2EFFF140EFC6F0001E3
:101C4000FAEC05F045D7020100011200F6C2FCF2E1
:101C50000A0E0201FD6F000114DF01C0F8F202015B
:101C6000F839F76FF00EF717F8510A0DF350F65DDB
:101C7000F86FF851F713F7C201F000011200236A60
:101C80001C0E226E829400008286080E0201F66FFE
:101C90000001A1EC06F022C0E9FF23C0EAFFEFCF6C
:101CA000F6F2A1EC06F0010E2224E96E000E2320CC
:101CB000EA6EEFCFF6F2A1EC06F0020E2224E96EF6
:101CC000000E2320EA6EEFCFF6F2A1EC06F0030E31
:101CD0002224E96E000E2320EA6EEFCFF6F2A1EC8B
:101CE00006F00201F66B0001A1EC06F0040E2224BE
:101CF000E96E000E2320EA6EEFCFF6F2A1EC06F0BB
:101D0000050E2224E96E000E2320EA6EEFCFF6F2D4
:101D1000A1EC06F082968294F3EF0FF0236A1C0E7A
:101D2000226EA06B90EC08F021DE020EEA6E550EDA
:101D3000E96E000EA1EC03F00A000900F550EE6E0A
:101D40000009FBE1EA6AD60EE96E020EE26E550E5C
:101D5000E16EE752E6CFEEFFFCE1020EEA6E550EB1
:101D6000E96E000EB4EC03F00A000900F550EE6EC7
:101D70000009FBE1010EEA6EE96A020EE26E550E01
:101D8000E16EE752E6CFEEFFFCE1236A1C0E226E05
:101D90009E6B050E2224E96E000E2320EA6EEFCF23
:101DA000F5F2070E0201F66F0001BFEC06F001C06C
:101DB0006AF2410E0201F46F100EF56F6AC2F6F27C
:101DC000010EF76F0C0EF86F000171DE01C06AF2B0
:101DD000050E2224016E000E2320036E01C06BF25B
:101DE00002016C6F6AC2F6F2000130DF6CC2EAFFDA
:101DF0006BC2E9FF01C0EFFF040E2224E96E000E62
:101E00002320EA6EEFCFF5F2050E0201F66F000116
:101E1000BFEC06F001C06AF20C0E0201F46F010E75
:101E2000F56F6AC2F6F2F76F0F0EF86F00013FDE32
:101E300001C06AF2040E2224016E000E2320036EFC
:101E400001C06BF202016C6F6AC2F6F20001FEDEA5
:101E50006CC2EAFF6BC2E9FF01C0EFFF030E222450
:101E6000E96E000E2320EA6EEFCFF5F2060E0201B6
:101E7000F66F0001BFEC06F001C06AF21F0E02010E
:101E8000F46F010EF56F6AC2F6F2F76F120EF86F7B
:101E900000010DDE01C06AF2030E2224016E000E65
:101EA0002320036E01C06BF202016C6F6AC2F6F26E
:101EB0000001CCDE6CC2EAFF6BC2E9FF01C0EFFF9C
:101EC000020E2224E96E000E2320EA6EEFCFF5F217
:101ED000050E0201F66F0001BFEC06F001C06AF2C8
:101EE000170E0201F46FF56B6AC2F6F2030EF76F7C
:101EF0000C0EF86F0001DBDD01C06AF2020E222435
:101F0000016E000E2320036E01C06BF202016C6FA4
:101F10006AC2F6F200019ADE6CC2EAFF6BC2E9FF08
:101F200001C0EFFF010E2224E96E000E2320EA6EAD
:101F3000EFCFF5F2070E0201F66F0001BFEC06F0DD
:101F400001C06AF23B0E0201F46FF56B6AC2F6F251
:101F5000030EF76F0F0EF86F0001A9DD01C06AF2E2
:101F6000010E2224016E000E2320036E01C06BF2CD
:101F700002016C6F6AC2F6F2000168DE6CC2EAFF11
:101F80006BC2E9FF01C0EFFF22C0E9FF23C0EAFFF7
:101F9000EFCFF5F2070E0201F66F0001BFEC06F07D
:101FA00001C06AF23B0E0201F46FF56B6AC2F6F2F1
:101FB000030EF76F120EF86F000179DD01C06AF2AF
:101FC00022C001F023C003F022C06BF223C06CF2E8
:101FD0006AC2F6F200013ADE6CC2EAFF6BC2E9FFA8
:101FE00001C0EFFF4CD6010E9E6F3FEC06F03CEFB8
:101FF00010F0010E9E6FF2CF50F2F29E636A626A99
:102000007F9C7F9E7F806150020150BFF28E000155
:10201000A66F0101546B0001A06B3FEC06F0A569AF
:10202000A353FEE0A36BEAEC06F00152D8A428D03B
:102030002FEC07F0015207E0A569D8909E339E531C
:1020400002E1080E9E6F46EC07F0015207E0A56919
:10205000D8909E379EA902D0010E9E6F5DEC07F0CE
:1020600001520DE0A5699EB70BD09EB174EF07F049
:102070009EB345D49EB552D63FEC06F0A569D0D7A5
:1020800090EC08F0EAEF1FF09E6B9F6BA16BA26BC8
:10209000A46985A287D0020EEA6E500EE96E000E8A
:1020A0008EEC01F00A000900F550EE6E0009FBE12C
:1020B000EA6AD60EE96E020EE26E500EE16EE7524B
:1020C000E6CFEEFFFCE1020EEA6E500EE96E000E66
:1020D000A1EC01F00A000900F550EE6E0009FBE1E9
:1020E000EA6AEB0EE96E020EE26E500EE16EE75206
:1020F000E6CFEEFFFCE1020EEA6E500EE96E000E36
:10210000B4EC01F00A000900F550EE6E0009FBE1A5
:10211000010EEA6EE96A020EE26E500EE16EE752BF
:10212000E6CFEEFFFCE1020EEA6E500EE96E000E05
:10213000C7EC01F00A000900F550EE6E0009FBE162
:10214000010EEA6E150EE96E020EE26E500EE16EA1
:10215000E752E6CFEEFFFCE15DEC07F0015212E141
:10216000A353FEE0A36BEAEC06F0015203E0000E7D
:10217000016E79D02FEC07F0015203E0000E016EE2
:1021800072D0EAD7A56990EC08F0040E0201656FE1
:10219000FA0EFC6F0001FAEC05F00201652FF8D78A
:1021A000000177D7020EEA6E500EE96E000E46EC83
:1021B00001F00A000900F550EE6E0009FBE1EA6A41
:1021C000D60EE96E020EE26E500EE16EE752E6CFD9
:1021D000EEFFFCE1020EEA6E500EE96E000EDAEC44
:1021E00001F00A000900F550EE6E0009FBE1EA6A11
:1021F000EB0EE96E020EE26E500EE16EE752E6CF94
:10220000EEFFFCE1020EEA6E500EE96E000EEDEC00
:1022100001F00A000900F550EE6E0009FBE1010E25
:10222000EA6EE96A020EE26E500EE16EE752E6CF08
:10223000EEFFFCE1020EEA6E500EE96E000E46EC77
:1022400001F00A000900F550EE6E0009FBE1010EF5
:10225000EA6E150EE96E020EE26E500EE16EE75266
:10226000E6CFEEFFFCE104EF20F0F5C2F9F2F4C294
:10227000F8F2F9C203F00201F8C2E9FF03C0EAFF75
:10228000EF5206E0F82BD8B4F92B0001F2D7020187
:10229000F7C203F0F6C2E9FF03C0EAFFEF5217E00E
:1022A000F9C2FBF2F7C203F0F6C2E9FF03C0EAFF8E
:1022B000EFCFFCF2FBC2EAFFF8C2E9FFFCC2EFFF7E
:1022C000F82BD8B4F92BF62BD8B4F72BE1D7F9C2F9
:1022D00003F0F8C2E9FF03C0EAFFEF6AF4C201F0BD
:1022E000F5C202F0000112000E01FF9FA19AF9C28F
:1022F00002FF020EFFBF05D0A1AAFED7000EFEBD51
:10230000010E016E000112000E01FE81FEB1FED72A
:10231000520E0201F96F0001E7DF01C0F7F202017E
:10232000F75308E00E01FE85FEB5FED7000E016EE4
:102330003DD00201F43D01D007D0F4C2F9F2000112
:10234000D3DF01C0F7F20201F75308E00E01FE856A
:10235000FEB5FED7000E016E29D00201F6C203F0D1
:10236000F5C2E9FF03C0EAFFEFCFF9F20001BCDFDD
:1023700001C0F7F20201F75308E00E01FE85FEB539
:10238000FED7000E016E12D00201F52BD8B4F62B49
:10239000F6C203F0F5C2E9FF03C0EAFFEF52DEE147
:1023A0000E01FE85FEB5FED7010E016E0001120082
:1023B0000E01FF9DFE87FEB7FED700B0FE9B00A07A
:1023C000FE8BFE89FEB9FED702CF01F0000134EF8B
:1023D00012F00201F66BF46BF45131085CE3140E59
:1023E000FC6F0001FAEC05F00E01FE81FEB1FED794
:1023F000520E0201F96F000177DF01C0F5F2020110
:10240000F55308E00E01FE85FEB5FED7000E016E05
:1024100045D00201630EF96F000166DF01C0F5F2DD
:102420000201F55308E00E01FE85FEB5FED7000E51
:10243000016E34D002010E01FE81FEB1FED7530EB3
:102440000201F96F000150DF01C0F5F20201F553FE
:1024500008E00E01FE85FEB5FED7000E016E1ED00F
:102460000201006A0001A4D701C0F6F20201F5538F
:1024700008E00E01FE85FEB5FED7000E016E0ED0FF
:1024800002010E01FE85FEB5FED70201F62D01D038
:1024900002D0F42BA1D7F6C201F00E010001120008
:1024A000010E0201516F51510001A75DD8A043D127
:1024B000020EEA6E520EE96E000E57EC00F00A00B2
:1024C0000900F550EE6E0009FBE1020151510908C7
:1024D00003E3300E51257A6F7B6B51510A080FE1EF
:1024E000020EEA6E7A0EE96E000E000162EC00F058
:1024F0000A000900F550EE6E0009FBE10201020E30
:10250000F56F520EF46F020EF76F7A0EF66F000140
:10251000ACDE020EEA6E7A0EE96E000E6CEC00F094
:102520000A000900F550EE6E0009FBE1020E0201FF
:10253000F56F520EF46F020EF76F7A0EF66F000110
:1025400094DE0201F46B020EF66F520EF56F00017D
:10255000DBDE3FDF015203E1000E016EECD0020E24
:10256000EA6E520EE96E000E77EC00F00A000900E8
:10257000F550EE6E0009FBE150C27AF202017B6B6E
:10258000020EF56F520EF46F020EF76F7A0EF66FB1
:1025900000016BDE020EEA6E7A0EE96E000E84EC2C
:1025A00000F00A000900F550EE6E0009FBE1020E92
:1025B0000201F56F520EF46F020EF76F7A0EF66F8E
:1025C000000153DE02015151090803E3300E512589
:1025D0007A6F7B6B51510A080FE1020EEA6E7A0E98
:1025E000E96E000E000162EC00F00A000900F550EF
:1025F000EE6E0009FBE10201020EF56F520EF46F60
:10260000020EF76F7A0EF66F00012FDE020EEA6EF1
:102610007A0EE96E000E90EC00F00A000900F55009
:10262000EE6E0009FBE1020E0201F56F520EF46F2F
:10263000020EF76F7A0EF66F000117DE020E02012E
:10264000F46FF66F520EF56F00015EDEC2DE0152CE
:1026500003E1000E016E6FD0020EEA6E520EE96EBB
:10266000000E9AEC00F00A000900F550EE6E000929
:10267000FBE1020E0201F46FF66F520EF56F0001DE
:1026800043DEA7DE015203E1000E016E54D0020EBC
:10269000EA6E520EE96E000EB3EC00F00A0009007B
:1026A000F550EE6E0009FBE1020E0201F46FF66FC9
:1026B000520EF56F000128DE8CDE015203E1000EA0
:1026C000016E39D0020EEA6E520EE96E000ECDECAC
:1026D00000F00A000900F550EE6E0009FBE1020E61
:1026E0000201F46FF66F520EF56F00010DDE71DE20
:1026F000015203E1000E016E1ED0020EEA6E520E70
:10270000E96E000EE5EC00F00A000900F550EE6EEF
:102710000009FBE1020E0201F46FF66F520EF56F35
:102720000001F2DD56DE015203E1000E016E03D01E
:102730000201512BB8D6000117EF20F090EC08F001
:10274000010E0101546F020EEA6E500EE96E000E8A
:10275000000159EC01F00A000900F550EE6E000985
:10276000FBE1EA6AD60EE96E020EE26E500EE16EF1
:10277000E752E6CFEEFFFCE1A6C0DCF0AC6BEB0E5F
:10278000AB6FC06B020ECB6FA751020809E3AE6BB3
:10279000F50EAD6F010EC16F020ECC6FA86BC0D0ED
:1027A000A751040817E3010EAE6FAD6BC16B040EA9
:1027B000CC6FB06BF50EAF6F010EC26F020ECD6F16
:1027C000010EB26F0A0EB16F010EC36F040ECE6F11
:1027D000A86BA6D0A751060826E3010EAE6FAD6B1D
:1027E000C16B040ECC6F010EB06F150EAF6FC26BD4
:1027F000080ECD6FB26BF50EB16F010EC36F020EF6
:10280000CE6F010EB46F0A0EB36F010EC46F040ECB
:10281000CF6F010EB66F1F0EB56F010EC56F080E9C
:10282000D06FA86B7DD0A751080836E3010EAE6FBC
:10283000AD6BC16B040ECC6F010EB06F150EAF6F98
:10284000C26B080ECD6F010EB26F2A0EB16FC36B53
:10285000100ECE6FB46BF50EB36F010EC46F020E87
:10286000CF6F010EB66F0A0EB56F010EC56F040E65
:10287000D06F010EB86F1F0EB76F010EC66F080E36
:10288000D16F010EBA6F340EB96F010EC76F100E03
:10289000D26F010EA86F44D0010EAE6FAD6BC16B4D
:1028A000040ECC6F010EB06F150EAF6FC26B080E29
:1028B000CD6F010EB26F2A0EB16FC36B100ECE6FCB
:1028C000010EB46F3F0EB36FC46B200ECF6FB66BAB
:1028D000F50EB56F010EC56F020ED06F010EB86F09
:1028E0000A0EB76F010EC66F040ED16F010EBA6FDC
:1028F0001F0EB96F010EC76F080ED26F010EBC6FAD
:10290000340EBB6F010EC86F100ED36F010EBE6F79
:10291000490EBD6F010EC96F200ED46F020EA86F55
:10292000ABC0E9FFACC0EAFF310EEF6EA751010862
:1029300006E2ADC0E9FFAEC0EAFF320EEF6EA7516E
:10294000020806E2AFC0E9FFB0C0EAFF330EEF6E47
:10295000A751030806E2B1C0E9FFB2C0EAFF340E96
:10296000EF6EA751040806E2B3C0E9FFB4C0EAFF66
:10297000350EEF6EA751050806E2B5C0E9FFB6C0F7
:10298000EAFF360EEF6EA751060806E2B7C0E9FF70
:10299000B8C0EAFF370EEF6EA751070806E2B9C0CC
:1029A000E9FFBAC0EAFF380EEF6EA751080806E249
:1029B000BBC0E9FFBCC0EAFF390EEF6EA7510A08A1
:1029C00006E1BDC0E9FFBEC0EAFF410EEF6E19EFA0
:1029D00020F00201F66BF76B010EF86FDA6AD96A24
:1029E000020EFB6FEE0EFA6F020EEA6EF20EE96E49
:1029F000FBC2E2FFFAC2E1FFF8C2F9F2D890E5505B
:102A0000EE02F350F623F450F723F92FF7D7F6C26E
:102A1000DEFFF7C2F6F2F76BD8B0F72BFA2BD8B47B
:102A2000FB2BF82BF8510508DFE100011200D8B2AA
:102A300004D0020EEA6E600EE96E006A016A026A54
:102A4000036A0201606B616B626B636B5F515E11C5
:102A50005D115C112CE0200E646FD8905837593707
:102A60005A375B3760376137623763375F51635D71
:102A700008E15E51625D05E15D51615D02E15C511D
:102A8000605D0FE35C51605F5D51D8A05D3D615FAB
:102A90005E51D8A05E3D625F5F51D8A05F3D635F2D
:102AA000D8800036013602360336642FD6D760C28E
:102AB000EFFF61C2ECFF62C2ECFF63C2ECFF0001FA
:102AC00070EF22F00201546B5151020809E2FF0A33
:102AD00003E15051E70804E2030E516FE70E506F17
:102AE00053C203F052C2E9FF03C0EAFF300EEF6E9B
:102AF000515303E15051630814E2010E546F5153D6
:102B000003E1505163080CE253C203F052C2E9FFE3
:102B100003C0EAFFEF2A640E505F000E515BEFD74F
:102B200008D053C203F052C2E9FF03C0EAFF200EEF
:102B3000EF6E522BD8B4532B53C203F052C2E9FFAD
:102B400003C0EAFF300EEF6E515303E15051090804
:102B500013E2010E546F515303E1505109080CE286
:102B600053C203F052C2E9FF03C0EAFFEF2A0A0E84
:102B7000505F000E515BEFD7542D01D008D053C2E7
:102B800003F052C2E9FF03C0EAFF200EEF6E522BA2
:102B9000D8B4532B53C203F052C2E9FF03C0EAFF7B
:102BA000300E5025EF6E000196EF22F00201509199
:102BB000828682948286880EF66F0001A1EC06F070
:102BC0000201F66B0001A1EC06F001C05CF18296F7
:102BD0005CC1F5F2070E0201F66F0001BFEC06F0D2
:102BE00001C05CF1A43D11D001015C511D0806E259
:102BF0001E0E5C5D0001A46F05D001011E0E5C2558
:102C00000001A46F020150910001A45101015C5D1B
:102C100010E15C511D0806E21E0E5C5D0001A46F10
:102C200005D001011E0E5C250001A46F0201508138
:102C30000101000E020150B1010E016E00013DEFD5
:102C400026F00201502D4BD09EC05EF100019E91F6
:102C5000020EEA6E510EE96E000E80EC01F00A00E1
:102C60000900F550EE6E0009FBE102015C6B5C515E
:102C70000A0834E3036A5C515F0F016E010E032200
:102C800003C05EF20A0E5C25FF0F036AD60FE96EE1
:102C9000000E0320EA6EEFCF5FF25EC2EAFF01C0D2
:102CA000E9FF5FC2EFFF0A0E5C25FF0F036AD60F34
:102CB000016E000E032203C05EF2036A5C51510FE5
:102CC000E96E020E0320EA6EEFCF5FF25EC2EAFF0A
:102CD00001C0E9FF5FC2EFFF5C2BC9D721D05EC105
:102CE0009EF05C6B5C510A081BE30A0E5C25FF0F2B
:102CF000036AD60F016E000E032203C05EF2036A60
:102D00005C515F0FE96E010E0320EA6EEFCF5FF2B8
:102D10005EC2EAFF01C0E9FF5FC2EFFF5C2BE2D7B2
:102D200000011200F7C203F00201F6C2E9FF03C07E
:102D3000EAFF320EEF6EF62BD8B4F72BF7C203F092
:102D4000F6C2E9FF03C0EAFF300EEF6EF62BD8B4EF
:102D5000F72BF7C203F0050EF425E96E000EF521FE
:102D6000EA6EEF38006E0F0E00160050300F03C0F1
:102D7000EAFFF6C2E9FFEF6EF62BD8B4F72BF7C2E5
:102D800003F0050EF425E96E000EF521EA6EEF5012
:102D90000F0B300F03C0EAFFF6C2E9FFEF6EF62B10
:102DA000D8B4F72BF7C203F0F6C2E9FF03C0EAFF7D
:102DB0002D0EEF6EF62BD8B4F72BF7C203F0040EEE
:102DC000F425E96E000EF521EA6EEF38006E0F0E65
:102DD00000160050300F03C0EAFFF6C2E9FFEF6EA5
:102DE000F62BD8B4F72BF7C203F0040EF425E96EE6
:102DF000000EF521EA6EEF500F0B300F03C0EAFF13
:102E0000F6C2E9FFEF6EF62BD8B4F72BF7C203F04A
:102E1000F6C2E9FF03C0EAFF2D0EEF6EF62BD8B421
:102E2000F72BF7C203F0030EF425E96E000EF5212F
:102E3000EA6EEF38006E0F0E00160050300F03C020
:102E4000EAFFF6C2E9FFEF6EF62BD8B4F72BF7C214
:102E500003F0030EF425E96E000EF521EA6EEF5043
:102E60000F0B300F03C0EAFFF6C2E9FFEF6EF62B3F
:102E7000D8B4F72BF7C203F0F6C2E9FF03C0EAFFAC
:102E8000EF6A000134EF19F0F7C203F00201020EFD
:102E9000F425E96E000EF521EA6EEF38006E0F0E94
:102EA00000160050300F03C0EAFFF6C2E9FFEF6ED4
:102EB000F62BD8B4F72BF7C203F0020EF425E96E17
:102EC000000EF521EA6EEF500F0B300F03C0EAFF42
:102ED000F6C2E9FFEF6EF62BD8B4F72BF7C203F07A
:102EE000F6C2E9FF03C0EAFF2D0EEF6EF62BD8B451
:102EF000F72BF7C203F0010EF425E96E000EF52161
:102F0000EA6EEF38006E0F0E00160050300F03C04F
:102F1000EAFFF6C2E9FFEF6EF62BD8B4F72BF7C243
:102F200003F0010EF425E96E000EF521EA6EEF5074
:102F30000F0B300F03C0EAFFF6C2E9FFEF6EF62B6E
:102F4000D8B4F72BF7C203F0F6C2E9FF03C0EAFFDB
:102F50002D0EEF6EF62BD8B4F72BF7C203F0F4C2A8
:102F6000E9FFF5C2EAFFEF38006E0F0E00160050C1
:102F7000300F03C0EAFFF6C2E9FFEF6EF62BD8B4BC
:102F8000F72BF7C203F0F4C2E9FFF5C2EAFFEF50F6
:102F90000F0B300F03C0EAFFF6C2E9FFEF6EF62B0E
:102FA000D8B4F72BF7C203F0F6C2E9FF03C0EAFF7B
:102FB000EF6A000168EF19F0016A026A006A036AA9
:102FC0000201F95102E1F85118E0100EFA6FD890A1
:102FD000F637F73700360336F951035C02E1F85152
:102FE000005C07E3F851005ED8A00306F951035EC8
:102FF000D88001360236FA2FEAD70001120002010A
:10300000F86BF551260809E2FF0A03E1F4510F08B5
:1030100004E2270EF56F0F0EF46FF7C203F0F6C24D
:10302000E9FF03C0EAFF300EEF6EF55102081EE221
:10303000FF0A03E1F451E70819E2F551020811E231
:10304000FF0A03E1F451E7080CE2F7C203F0F6C20D
:10305000E9FF03C0EAFFEF2AE80EF45F030EF55B19
:10306000ECD7010EF86FF62BD8B4F72BF7C203F0AC
:10307000F6C2E9FF03C0EAFF300EEF6EF55305E13B
:10308000F451630802E3F85315E0F55303E1F451FA
:1030900063080CE2F7C203F0F6C2E9FF03C0EAFFDF
:1030A000EF2A640EF45F000EF55BEFD7F62BD8B471
:1030B000F72B05D0F85303E0F62BD8B4F72BF7C263
:1030C00003F0F6C2E9FF03C0EAFF300EEF6EF553DE
:1030D00003E1F451090811E2F55303E1F451090841
:1030E0000CE2F7C203F0F6C2E9FF03C0EAFFEF2AE1
:1030F0000A0EF45F000EF55BEFD7F62BD8B4F72B72
:10310000F7C203F0F6C2E9FF03C0EAFF300EF42570
:10311000EF6EF62BD8B4F72BF7C203F0F6C2E9FF37
:1031200003C0EAFFEF6A00011200236A1C0E226E40
:10313000B6EC0CF0010E0201506F010E0001A72544
:103140000201505DD8B0C0EF1CF0010E505D140DAF
:10315000F350036A240F016E000E032201C09CF09D
:10316000000103C09DF0020EEA6E530EE96E000EE0
:1031700057EC00F00A000900F550EE6E0009FBE183
:1031800002015051090803E3300E5025676F686B48
:1031900050510A080FE1020EEA6E670EE96E000E4A
:1031A000000162EC00F00A000900F550EE6E000923
:1031B000FBE10201020EF56F530EF46F020EF76F82
:1031C000670EF66F000135EC11F0020EEA6E670E25
:1031D000E96E000E6CEC00F00A000900F550EE6E8E
:1031E0000009FBE1020E0201F56F530EF46F020EAF
:1031F000F76F670EF66F000135EC11F00201F46B0A
:10320000020EF66F530EF56F000184EC11F0E9EC3D
:1032100011F0015204E1000E016EC2EF1CF0020E2B
:10322000EA6E530EE96E000EFBEC00F00A00090096
:10323000F550EE6E0009FBE1020EEA6E670EE96ED4
:10324000000EFBEC00F00A000900F550EE6E0009DC
:10325000FBE123C0F5F222C0F4F2020E0201F76F87
:10326000530EF66F00015ED5020EEA6E670EE96E30
:10327000000E04EC01F00A000900F550EE6E0009A2
:10328000FBE1020E0201F56F530EF46F020EF76FB1
:10329000670EF66F000135EC11F0020E0201F46FBB
:1032A000F66F530EF56F000184EC11F0E9EC11F0AC
:1032B000015203E1000E016E65D323C0F5F222C076
:1032C000F4F2020E0201F76F530EF66F0001DCD527
:1032D000020EEA6E670EE96E000E04EC01F00A00C1
:1032E0000900F550EE6E0009FBE1020E0201F56FD8
:1032F000530EF46F020EF76F670EF66F000135EC98
:1033000011F0020E0201F46FF66F530EF56F00011B
:1033100084EC11F0E9EC11F0015203E1000E016EB2
:1033200031D3020EEA6E530EE96E000EFBEC00F094
:103330000A000900F550EE6E0009FBE1020E9C2523
:10334000E96E000E9D21EA6EECCFF7F2ED52EFCF61
:10335000F6F20201F96B0A0EF86F00012DDE02C0D1
:1033600052F201C051F252C2F5F251C2F4F2020E11
:103370000201F76F530EF66F000141DE020EEA6E96
:10338000670EE96E000E04EC01F00A000900F5502A
:10339000EE6E0009FBE1020E0201F56F530EF46FB1
:1033A000020EF76F670EF66F000135EC11F0040E98
:1033B0009C25E96E000E9D21EA6EECCFF7F2ED52EE
:1033C000EFCFF6F20201F96B0A0EF86F0001F4DD9F
:1033D00002C052F201C051F252C2F5F251C2F4F2EF
:1033E000020E0201F76F670EF66F000108DE020E93
:1033F0000201F56F530EF46F020EF76F670EF66F52
:10340000000135EC11F0020EEA6E670EE96E000E57
:1034100004EC01F00A000900F550EE6E0009FBE132
:10342000020E0201F56F530EF46F020EF76F670E76
:10343000F66F000135EC11F0060E9C25E96E000ECA
:103440009D21EA6EECCF52F2ED52EFCF51F252C213
:10345000F5F251C2F4F2020E0201F76F670EF66F39
:103460000001CDDD020E0201F56F530EF46F020E66
:10347000F76F670EF66F000135EC11F0020EEA6E81
:10348000670EE96E000E04EC01F00A000900F55029
:10349000EE6E0009FBE1020E0201F56F530EF46FB0
:1034A000020EF76F670EF66F000135EC11F0020E99
:1034B0000201F46FF66F530EF56F000184EC11F00A
:1034C000E9EC11F0015203E1000E016E5BD2020E35
:1034D000EA6E530EE96E000EFBEC00F00A000900E4
:1034E000F550EE6E0009FBE1080E9C25E96E000E1A
:1034F0009D21EA6EECCFF7F2ED52EFCFF6F202012A
:10350000F96B0A0EF86F000157DD02C052F201C0DC
:1035100051F252C2F5F251C2F4F2020E0201F76FFB
:10352000530EF66F00016BDD020EEA6E670EE96E58
:10353000000E04EC01F00A000900F550EE6E0009DF
:10354000FBE1020E0201F56F530EF46F020EF76FEE
:10355000670EF66F000135EC11F00A0E9C25E96E3E
:10356000000E9D21EA6EECCF52F2ED52EFCF51F2F8
:1035700052C2F5F251C2F4F2020E0201F76F670E69
:10358000F66F00013CDD020E0201F56F530EF46F81
:10359000020EF76F670EF66F000135EC11F0020EA8
:1035A000EA6E670EE96E000E04EC01F00A000900F5
:1035B000F550EE6E0009FBE1020E0201F56F530EAD
:1035C000F46F020EF76F670EF66F000135EC11F025
:1035D0000C0E9C25E96E000E9D21EA6EECCFF7F2F1
:1035E000ED52EFCFF6F20201F96B0A0EF86F00010F
:1035F000E3DC02C052F201C051F252C2F5F251C2F4
:10360000F4F2020E0201F76F670EF66F0001F7DCAD
:10361000020E0201F56F530EF46F020EF76F670E84
:10362000F66F000135EC11F0020EEA6E670EE96EDE
:10363000000E04EC01F00A000900F550EE6E0009DE
:10364000FBE1020E0201F56F530EF46F020EF76FED
:10365000670EF66F000135EC11F0020E0201F46FF7
:10366000F66F530EF56F000184EC11F0E9EC11F0E8
:10367000015203E1000E016E85D1020EEA6E530E77
:10368000E96E000EFBEC00F00A000900F550EE6E4A
:103690000009FBE10E0E9C25E96E000E9D21EA6EED
:1036A000ECCFF7F2ED52EFCFF6F20201F96B0A0E12
:1036B000F86F000181DC02C052F201C051F252C227
:1036C000F5F251C2F4F2020E0201F76F530EF66FDB
:1036D000000195DC020EEA6E670EE96E000E04EC46
:1036E00001F00A000900F550EE6E0009FBE1020E40
:1036F0000201F56F530EF46F020EF76F670EF66F4F
:10370000000135EC11F0100E9C25E96E000E9D2194
:10371000EA6EECCFF7F2ED52EFCFF6F20201F96B61
:103720000A0EF86F000148DC02C052F201C051F2EB
:1037300052C2F5F251C2F4F2020E0201F76F670EA7
:10374000F66F00015CDC020E0201F56F530EF46FA0
:10375000020EF76F670EF66F000135EC11F0020EE6
:10376000EA6E670EE96E000E04EC01F00A00090033
:10377000F550EE6E0009FBE1020E0201F56F530EEB
:10378000F46F020EF76F670EF66F000135EC11F063
:10379000120E9C25E96E000E9D21EA6EECCF52F2CE
:1037A000ED52EFCF51F252C2F5F251C2F4F2020ED5
:1037B0000201F76F670EF66F000121DC020E0201B5
:1037C000F56F530EF46F020EF76F670EF66F000180
:1037D00035EC11F0020EEA6E670EE96E000E04EC95
:1037E00001F00A000900F550EE6E0009FBE1020E3F
:1037F0000201F56F530EF46F020EF76F670EF66F4E
:10380000000135EC11F0020E0201F46FF66F530E59
:10381000F56F000184EC11F0E9EC11F0015203E1C5
:10382000000E016EAFD0020EEA6E530EE96E000E6E
:10383000FBEC00F00A000900F550EE6E0009FBE118
:103840009CC0E9FF9DC0EAFFECCF51F2ED52EFCFF3
:1038500071F20201526B52C2F5F251C2F4F2020E41
:10386000F76F530EF66F0001FFEC17F0020EEA6ED1
:10387000670EE96E000E04EC01F00A000900F55035
:10388000EE6E0009FBE1020E0201F56F530EF46FBC
:10389000020EF76F670EF66F000135EC11F09CC059
:1038A000E9FF9DC0EAFFECCF72F2ED52EFCF71F26B
:1038B000020E02017117726B7151020811E172530D
:1038C0000FE1020EEA6E670EE96E000E00010DECCC
:1038D00001F00A000900F550EE6E0009FBE130D05E
:1038E00000019CC0E9FF9DC0EAFFECCF72F2ED52EF
:1038F000EFCF71F2010E02017117726B712D12D0B0
:10390000725310E1020EEA6E670EE96E000E0001BE
:1039100018EC01F00A000900F550EE6E0009FBE119
:103920000FD00201020EEA6E670EE96E000E000172
:1039300023EC01F00A000900F550EE6E0009FBE1EE
:10394000020E0201F56F530EF46F020EF76F670E51
:10395000F66F000135EC11F0020E0201F46FF66F04
:10396000530EF56F000184EC11F0E9EC11F00152F7
:1039700003E1000E016E06D00201502B9DEF18F0FE
:10398000010E016E000149EF26F0B6EC0CF0236A3F
:103990001C0E226E22C0E9FF23C0EAFFEF500F0B7E
:1039A0000201E16BE06BDF6BDE6F22C0E9FF23C039
:1039B000EAFFEFCFE2F2E239006E0F0E0016005080
:1039C0000F0B0A0DF3CF00F0016A026A036A005080
:1039D000DE25D46F0150DF21D56F0250E021D66F74
:1039E0000350E121D76F010E2224E96E000E23203F
:1039F000EA6EEF500F0BE16BE06BDF6BDE6F010ED9
:103A00002224E96E000E2320EA6EEFCFE2F2E239C3
:103A1000006E0F0E001600500F0B0A0DF3CF00F0D2
:103A2000016A026A036ADE510026DF510122E05179
:103A30000222E151032203C0E1F202C0E0F201C020
:103A4000DFF200C0DEF2EACFE5F2E9CFE4F2F16B9B
:103A5000F06BEF6B3C0EEE6F03C0F5F202C0F4F2B8
:103A600001C0F3F200C0F2F20001E9EC14F0E5C28B
:103A7000EAFFE4C2E9FF00500201D4270150D52338
:103A80000250D6230350D723020E2224E96E000EE3
:103A90002320EA6EEF500F0BE16BE06BDF6BDE6F04
:103AA000020E2224E96E000E2320EA6EEFCFE2F22E
:103AB000E239006E0F0E001600500F0B0A0DF3CF07
:103AC00000F0016A026A036ADE510026DF5101221A
:103AD000E0510222E151032203C0E1F202C0E0F210
:103AE00001C0DFF200C0DEF2EACFE5F2E9CFE4F296
:103AF000F16BF06B0E0EEF6F100EEE6F03C0F5F270
:103B000002C0F4F201C0F3F200C0F2F20001E9ECED
:103B100014F0E5C2EAFFE4C2E9FF00500201D42735
:103B20000150D5230250D6230350D723030E22245D
:103B3000E96E000E2320EA6EEF500F0BE16BE06B95
:103B4000DF6BDE6F030E2224E96E000E2320EA6E87
:103B5000EFCFE2F2E239006E0F0E001600500F0BAD
:103B60000A0DF3CF00F0016A026A036A0050DE27F3
:103B70000150DF230250E0230350E123010EDE5DFC
:103B8000006E000EDF59016E000EE059026E000E4D
:103B9000E159036EE16F02C0E0F201C0DFF200C044
:103BA000DEF2EACFE5F2E9CFE4F2F16B010EF06F5D
:103BB000510EEF6F800EEE6F03C0F5F202C0F4F20B
:103BC00001C0F3F200C0F2F20001E9EC14F0E5C22A
:103BD000EAFFE4C2E9FF00500201D4270150D523D7
:103BE0000250D6230350D723040E2224E96E000E80
:103BF0002320EA6EEF500F0BDE6F040E2224E96ED5
:103C0000000E2320EA6EEF38006E0F0E00160050F3
:103C10000A0DF3500F0BDE25FF0FDC6FDD6BD89024
:103C2000DC35026EDD35036E025000016CEC01F0F4
:103C30000900F5CF03F00201DC6F03C0DDF2DCC246
:103C400000F0DDC201F0026A036A03C0E1F202C0C3
:103C5000E0F201C0DFF200C0DEF2F16B010EF06FA6
:103C6000510EEF6F800EEE6F03C0F5F202C0F4F25A
:103C700001C0F3F200C0F2F20001E9EC14F00050D0
:103C80000201D4270150D5230250D6230350D72355
:103C9000050E2224E96E000E2320EA6EEF500F0B72
:103CA000E16BE06BDF6BDE6F050E2224E96E000E28
:103CB0002320EA6EEFCFE2F2E239006E0F0E00161B
:103CC00000500F0B0A0DF3CF00F0016A026A036A7D
:103CD0000050DE270150DF230250E0230350E12390
:103CE0001E0EDE25D86F000EDF21D96F000EE021F9
:103CF000DA6F000EE121DB6F010EF16FE10EF06F64
:103D0000330EEF6F800EEE6FDBC2F5F2DAC2F4F223
:103D1000D9C2F3F2D8C2F2F20001E9EC14F000507B
:103D20000201D4270150D5230250D6230350D723B4
:103D3000050E2224E96E000E2320EA6EEF500F0BD1
:103D4000DE6F050E2224E96E000E2320EA6EEF38A6
:103D5000006E0F0E001600500A0DF350DE25F00F16
:103D6000DC6FDD6BDD33DC33DD33DC333F0EDD1741
:103D7000040E2224E96E000E2320EA6EEF500208A2
:103D800008E3DC5302E1DD5304E0010EDC5F000ECA
:103D9000DD5B0C0EDC27000EDD23E16BE06BDDC28A
:103DA000DFF2DCC2DEF2E1C2F1F2E0C2F0F2DDC22B
:103DB000EFF2DCC2EEF2F56B010EF46F510EF36F11
:103DC000800EF26F0001E9EC14F000500201D427DC
:103DD0000150D5230250D6230350D723D4C200F07C
:103DE000D5C201F0D6C202F0D7C203F0000116EF2F
:103DF0001FF00201D651020806E0D651030803E085
:103E0000D65110080AE1100E0F011C6F010E0201BD
:103E1000FC6F0001FAEC05F00201D6C21CFF010E96
:103E2000FC6F0001FAEC05F01200AFD503C055F2AB
:103E300002C054F201C053F200C052F2020E0F0150
:103E40001C6F010E0201FC6F0001FAEC05F0A6C028
:103E5000D6F2CFDF52C2D6F2CCDF53C200F054C24A
:103E600001F055C202F0036A00C059F200C0D6F258
:103E7000C0DF54C200F055C201F0026A036A00C0FC
:103E800059F200C0D6F2B5DF55C200F0016A026AED
:103E9000036A00C059F200C0D6F2ABDFA7C0D6F269
:103EA000A8DF0201576B5751050845E301015D5139
:103EB000140DF350036A240F016E000E032201C09B
:103EC0009CF0000103C09DF0010E01015D2502017F
:103ED000586FD66F00018DDF010E01015D250201D3
:103EE0005025E96E000E5121EA6EEFCFD6F20001A7
:103EF00080DF0201566B565113080DE35651000145
:103F00009C25E96E000E9D21EA6EEFCFD6F271DF9F
:103F10000201562BF0D701015D2B010E0001A75DB8
:103F200001015D5D05E004E35D6B020104D0010168
:103F30000201572BB8D7030E0F011C6F00011200AE
:103F4000F86AD09E078EA469A569D56B0101556BEF
:103F5000130E0F01016F280E0E01FF6F0F01008F6E
:103F6000009D0101576B596B5B6B5D6B0E01F46B30
:103F7000F56BF66B000E0F01236F246F256FC19652
:103F8000C198C19A2E6B2F6B546B1A6A1B6A010180
:103F9000566B586B5A6B5C6B5E6B5F6B606B616BE7
:103FA000626B636B646B656B666B676B686B696B8D
:103FB000806B816BA16B00018CEF05F0E4EC05F0E8
:103FC000EDEF05F00EEF06F09E6B9F6BA16BA26B01
:103FD000F9EF0FF0F2CFA2F1F29E636A626A7F9C62
:103FE0007F9E7F8061500101A2BFF28E0001A66F0B
:103FF000A651400802E35A0EA66FA6515A0802E2E3
:10400000410EA66F44EF10F0F2CFA2F1F29E636A68
:10401000010E626E7F9C7F9E7F8061500101A2BF76
:10402000F28E0001A76FA6C050F250EF12F09EEF83
:1040300013F0010E0101826F82510A080AE3036A3C
:1040400082516A0FE96E010E0320EA6EEF6A822B3D
:10405000F3D775690001A469010E0101826F8251D5
:10406000140DF350036A240F016E000E032201C0E9
:104070009CF0000103C09DF05DEC07F0015205E0EB
:10408000010E0101806F816B00012FEC07F00152DE
:1040900003E0A05301E0A00746EC07F0015206E060
:1040A000A02BA051A85DD8A0A8C0A0F0320E02019C
:1040B000FC6F0001FAEC05F09D922D0E0201F46FE9
:1040C00082C1F5F20001F6EC08F00152D8A489D0C3
:1040D000036A010182516A0FE96E010E0320EA6E44
:1040E000080EEF6E036A82C102F0D89002360336E2
:1040F0000250A90FE96E000E0320EA6EECCFA3F187
:10410000ED52EFCFA2F1060EA225016E000EA32103
:1041100001C0E9FFEA6E450EEF6E036A82C102F04C
:10412000D890023603360250A90FE96E000E032024
:10413000EA6EECCFA3F1ED52EFCFA2F1060EA2276B
:10414000000EA323010EA225016E000EA32101C0C3
:10415000E9FFEA6E520EEF6E036A82C102F0D89058
:10416000023603360250A90FE96E000E0320EA6EF4
:10417000ECCFA3F1ED52EFCFA2F1060EA227000E75
:10418000A323020EA225016E000EA32101C0E9FFA8
:10419000EA6E520EEF6E80531EE1036A8251BF0F2A
:1041A000E96E000E0320EA6E036AEF509E0F016E67
:1041B000000E032203C0A3F1036A8251CA0FE96E05
:1041C000000E0320EA6EEFCFA4F1A3C1EAFF01C005
:1041D000E9FFA4C1EFFF9E92CC6A9D8290EF25F08B
:1041E0000001036A010182516A0FE96E010E03208A
:1041F000EA6EEF50F70BEF6E036A82C102F0D890BF
:10420000023603360250A90FE96E000E0320EA6E53
:10421000ECCFA3F1ED52EFCFA2F1060EA225016E75
:10422000000EA32101C0E9FFEA6E200EEF6E036AC3
:1042300082C102F0D890023603360250A90FE96E0F
:10424000000E0320EA6EECCFA3F1ED52EFCFA2F106
:10425000060EA227000EA323010EA225016E000E5A
:10426000A32101C0E9FFEA6E200EEF6E036A82C14E
:1042700002F0D890023603360250A90FE96E000E04
:104280000320EA6EECCFA3F1ED52EFCFA2F1060EC0
:10429000A227000EA323020EA225016E000EA32169
:1042A00001C0E9FFEA6E200EEF6E9E92CC6A9D82FD
:1042B00000019CC0E9FF9DC0EAFFECCFA3F1ED52E5
:1042C000EFCFA2F1040E0101A217A36BA2510408C3
:1042D000D8A4B6D0A353D8A4B3D0036A82C102F045
:1042E000D890023603360250A90FE96E000E032063
:1042F000EA6EECCFA3F1ED52EFCFA2F1060EA225AC
:10430000016E000EA32101C0E9FFEA6E4F0EEF6EB1
:10431000036A82C102F0D890023603360250A90F18
:10432000E96E000E0320EA6EECCFA3F1ED52EFCF61
:10433000A2F1060EA227000EA323010EA225016EF4
:10434000000EA32101C0E9FFEA6E460EEF6E036A7C
:1043500082C102F0D890023603360250A90FE96EEE
:10436000000E0320EA6EECCFA3F1ED52EFCFA2F1E5
:10437000060EA227000EA323020EA225016E000E38
:10438000A32101C0E9FFEA6E460EEF6E036A82C107
:1043900002F0D890023603360250A90FE96E000EE3
:1043A0000320EA6EECCFA3F1ED52EFCFA2F1020EA3
:1043B000A225016E000EA32101C0E9FFEA6E2D0EB9
:1043C000EF6E036A82C102F0D890023603360250C3
:1043D000A90FE96E000E0320EA6EECCFA3F1ED52B7
:1043E000EFCFA2F1020EA227000EA323010EA225F9
:1043F000016E000EA32101C0E9FFEA6E2D0EEF6EE3
:10440000036A82C102F0D890023603360250A90F27
:10441000E96E000E0320EA6EECCFA3F1ED52EFCF70
:10442000A2F1020EA227000EA323020EA225016E06
:10443000000EA32101C0E9FFEA6E2D0EEF6E70D3CE
:10444000100E00019C25E96E000E9D21EA6EECCF56
:1044500003F0ED52EFCF00F003C001F0026A036AEF
:1044600003C0A5F102C0A4F101C0A3F100C0A2F1F4
:10447000EACFA7F1E9CFA6F10201F16BF06BEF6B88
:104480000A0EEE6F03C0F5F202C0F4F201C0F3F2BF
:1044900000C0F2F20001E9EC14F0A7C1EAFFA6C1E6
:1044A000E9FF03C0A5F102C0A4F101C0A3F100C05F
:1044B000A2F1EACFA9F1E9CFA8F1D89203C05BF24B
:1044C00002C05AF201C059F200C058F202015F6BFB
:1044D0005E6B020E5D6F9E0E5C6F000117EF15F0B4
:1044E000A9C1EAFFA8C1E9FF03C0A0F102C09FF182
:1044F00001C09EF100C09DF19EC19CF19DC19BF148
:10450000036A010182516A0FE96E010E0320EA6E0F
:10451000EFB666D09CC151F29BC150F2010E020170
:10452000536F970E526F000162EF15F0036A01019D
:1045300082C102F0D890023603360250A90FE96E0C
:10454000000E0320EA6EECCFA3F1ED52EFCFA2F103
:10455000020EA225016E000EA32101C0E9FFEA6E42
:1045600097C1EFFF036A82C102F0D890023603368A
:104570000250A90FE96E000E0320EA6EECCFA3F102
:10458000ED52EFCFA2F1020EA227000EA323010EDF
:10459000A225016E000EA32101C0E9FFEA6E98C1B9
:1045A000EFFF036A82C102F0D89002360336025050
:1045B000A90FE96E000E0320EA6EECCFA3F1ED52D5
:1045C000EFCFA2F1020EA227000EA323020EA22516
:1045D000016E000EA32101C0E9FFEA6E99C1EFFF51
:1045E00000019CC0E9FF9DC0EAFFEFA80DD0036A5F
:1045F000010182516A0FE96E010E0320EA6EEF504D
:104600000409EF6E0CD00001036A010182516A0FA8
:10461000E96E010E0320EA6EEF50FB0BEF6E000116
:104620009CC0E9FF9DC0EAFFEFA00DD0036A010125
:1046300082516A0FE96E010E0320EA6EEF50020903
:10464000EF6E0CD00001036A010182516A0FE96E1E
:10465000010E0320EA6EEF50FD0BEF6E00019CC0CF
:10466000E9FF9DC0EAFFEFA20DD0036A010182516C
:104670006A0FE96E010E0320EA6EEF502009EF6E1B
:104680000CD00001036A010182516A0FE96E010E2C
:104690000320EA6EEF50DF0BEF6E00019CC0E9FFD4
:1046A0009DC0EAFFEFA60DD0036A010182516A0F97
:1046B000E96E010E0320EA6EEF500109EF6E0CD097
:1046C0000001036A010182516A0FE96E010E0320A5
:1046D000EA6EEF50FE0BEF6E753D1DD0036A8251FE
:1046E000750F016E010E032203C0A3F1036A82510C
:1046F0006A0FE96E010E0320EA6EEFCFA4F1A3C1A9
:10470000EAFF01C0E9FFA4C1EFFF0001A7510101C9
:10471000825D01E3756B036A82516A0FE96E010ED7
:104720000320EA6EEFA47AD0036A82C102F0D89027
:10473000023603360250A90FE96E000E0320EA6E1E
:10474000ECCFA3F1ED52EFCFA2F1060EA225016E40
:10475000000EA32101C0E9FFEA6E420EEF6E036A6C
:1047600082C102F0D890023603360250A90FE96EDA
:10477000000E0320EA6EECCFA3F1ED52EFCFA2F1D1
:10478000060EA227000EA323010EA225016E000E25
:10479000A32101C0E9FFEA6E4C0EEF6E036A82C1ED
:1047A00002F0D890023603360250A90FE96E000ECF
:1047B0000320EA6EECCFA3F1ED52EFCFA2F1060E8B
:1047C000A227000EA323020EA225016E000EA32134
:1047D00001C0E9FFEA6E4B0EEF6E80531EE1036AE3
:1047E0008251BF0FE96E000E0320EA6E036AEF509C
:1047F0009E0F016E000E032203C0A3F1036A8251D3
:10480000CA0FE96E000E0320EA6EEFCFA4F1A3C138
:10481000EAFF01C0E9FFA4C1EFFF82D1036A825120
:104820006A0FE96E010E0320EA6EEFAA5AD0036AFE
:1048300082C102F0D890023603360250A90FE96E09
:10484000000E0320EA6EECCFA3F1ED52EFCFA2F100
:10485000060EA225016E000EA32101C0E9FFEA6E3B
:10486000520EEF6E036A82C102F0D8900236033610
:104870000250A90FE96E000E0320EA6EECCFA3F1FF
:10488000ED52EFCFA2F1060EA227000EA323010ED8
:10489000A225016E000EA32101C0E9FFEA6E550EAC
:1048A000EF6E036A82C102F0D890023603360250DE
:1048B000A90FE96E000E0320EA6EECCFA3F1ED52D2
:1048C000EFCFA2F1060EA227000EA323020EA2250F
:1048D000016E000EA32101C0E9FFEA6E4E0EEF6EDD
:1048E0001FD1036A82516A0FE96E010E0320EA6E3E
:1048F000EFA25AD0036A82C102F0D8900236033682
:104900000250A90FE96E000E0320EA6EECCFA3F16E
:10491000ED52EFCFA2F1060EA225016E000EA321EB
:1049200001C0E9FFEA6E530EEF6E036A82C102F026
:10493000D890023603360250A90FE96E000E03200C
:10494000EA6EECCFA3F1ED52EFCFA2F1060EA22753
:10495000000EA323010EA225016E000EA32101C0AB
:10496000E9FFEA6E520EEF6E036A82C102F0D89040
:10497000023603360250A90FE96E000E0320EA6EDC
:10498000ECCFA3F1ED52EFCFA2F1060EA227000E5D
:10499000A323020EA225016E000EA32101C0E9FF90
:1049A000EA6E560EEF6EBCD0036A82516A0FE96E52
:1049B000010E0320EA6EEFA05AD0036A82C102F012
:1049C000D890023603360250A90FE96E000E03207C
:1049D000EA6EECCFA3F1ED52EFCFA2F1060EA225C5
:1049E000016E000EA32101C0E9FFEA6E4C0EEF6ECE
:1049F000036A82C102F0D890023603360250A90F32
:104A0000E96E000E0320EA6EECCFA3F1ED52EFCF7A
:104A1000A2F1060EA227000EA323010EA225016E0D
:104A2000000EA32101C0E9FFEA6E4F0EEF6E036A8C
:104A300082C102F0D890023603360250A90FE96E07
:104A4000000E0320EA6EECCFA3F1ED52EFCFA2F1FE
:104A5000060EA227000EA323020EA225016E000E51
:104A6000A32101C0E9FFEA6E570EEF6E59D0036A29
:104A700082C102F0D890023603360250A90FE96EC7
:104A8000000E0320EA6EECCFA3F1ED52EFCFA2F1BE
:104A9000060EA225016E000EA32101C0E9FFEA6EF9
:104AA000200EEF6E036A82C102F0D8900236033600
:104AB0000250A90FE96E000E0320EA6EECCFA3F1BD
:104AC000ED52EFCFA2F1060EA227000EA323010E96
:104AD000A225016E000EA32101C0E9FFEA6E200E9F
:104AE000EF6E036A82C102F0D8900236033602509C
:104AF000A90FE96E000E0320EA6EECCFA3F1ED5290
:104B0000EFCFA2F1060EA227000EA323020EA225CC
:104B1000016E000EA32101C0E9FFEA6E200EEF6EC8
:104B2000822B010E0001A7250101825DD8A02FEF85
:104B300020F080531EE000019E6B9F6BA16BA26B67
:104B4000010EEA6E830EE96E000E2EEC01F00A00F3
:104B50000900F550EE6E0009FBE1EA6AE00EE96E2D
:104B6000010EE26E830EE16EE752E6CFEEFFFCE14E
:104B70000101010E826F010E0001A7250101825D76
:104B800065E2036A82516A0FE96E010E0320EA6E44
:104B9000EFCFA2F1036A8251750FE96E010E032077
:104BA000EA6EEF50A25D39E0010E0001D56F036A95
:104BB000010182516A0FE96E010E0320EA6EEFA631
:104BC00012D0010EEA6E830EE96E000E0001C7ECF2
:104BD00003F00A000900F550EE6E0009FBE1010E3A
:104BE0000101816F1AD0036A82516A0FE96E010ECA
:104BF0000320EA6EEFA411D0010EEA6E830EE96E77
:104C0000000E0001D5EC03F00A000900F550EE6E2D
:104C10000009FBE1010E0101816F036A8251750FEA
:104C2000016E010E032203C0A3F1036A82516A0FD1
:104C3000E96E010E0320EA6EEFCFA4F1A3C1EAFFF3
:104C400001C0E9FFA4C1EFFF822B95D7815312E089
:104C5000EA6AE00EE96E010EE26E830EE16EE75243
:104C6000E6CFEEFFFCE1806B010E0001A16FA26FA9
:104C70009E8101010001D6EF15F0015232E085B2AC
:104C80000DD0010E0201506F000121EC16F095EFDE
:104C900018F00201506B000121EC16F00101A16B2C
:104CA0000001D56B010E0201516F6A0E506F0001B9
:104CB00015EC1FF0A751050814E2180E0101A26FB0
:104CC000FA0E0201FC6F0001FAEC05F00101A22FBF
:104CD000F7D7010E0201516F6D0E506F000115ECF8
:084CE0001FF02CEF20F003008F
:020000040030CA
:0E00000015C27F7C018991000FC00FE00F40F8
:00000001FF
;PIC18F66K90
;CRC=7EBC  CREATED="11-Sep-19 15:36"
